{
  "abi": [
    {
      "inputs": [
        {
          "internalType": "address[]",
          "name": "pools",
          "type": "address[]"
        }
      ],
      "stateMutability": "nonpayable",
      "type": "constructor"
    },
    {
      "inputs": [
        {
          "internalType": "address",
          "name": "pool",
          "type": "address"
        },
        {
          "internalType": "int24",
          "name": "currentTick",
          "type": "int24"
        },
        {
          "internalType": "bool",
          "name": "zeroForOne",
          "type": "bool"
        },
        {
          "internalType": "int24",
          "name": "tickSpacing",
          "type": "int24"
        }
      ],
      "name": "getTickBitmap",
      "outputs": [
        {
          "components": [
            {
              "internalType": "bool",
              "name": "initialized",
              "type": "bool"
            },
            {
              "internalType": "int24",
              "name": "tick",
              "type": "int24"
            },
            {
              "internalType": "int128",
              "name": "liquidityNet",
              "type": "int128"
            }
          ],
          "internalType": "struct UniswapV3DataAggregator.TickData[]",
          "name": "tickData",
          "type": "tuple[]"
        }
      ],
      "stateMutability": "nonpayable",
      "type": "function"
    }
  ],
  "bytecode": {
    "object": "0x60806040523480156200001157600080fd5b50604051620021f8380380620021f88339818101604052810190620000379190620015c4565b6000815167ffffffffffffffff81111562000057576200005662001400565b5b6040519080825280602002602001820160405280156200009457816020015b62000080620012d6565b815260200190600190039081620000765790505b50905060005b825181101562000a32576000838281518110620000bc57620000bb62001615565b5b60200260200101519050620000d78162000a6360201b60201c565b15620000e4575062000a1e565b620000ee620012d6565b8173ffffffffffffffffffffffffffffffffffffffff16630dfe16816040518163ffffffff1660e01b8152600401602060405180830381865afa1580156200013a573d6000803e3d6000fd5b505050506040513d601f19601f8201168201806040525081019062000160919062001644565b816000019073ffffffffffffffffffffffffffffffffffffffff16908173ffffffffffffffffffffffffffffffffffffffff16815250508173ffffffffffffffffffffffffffffffffffffffff1663d21220a76040518163ffffffff1660e01b8152600401602060405180830381865afa158015620001e3573d6000803e3d6000fd5b505050506040513d601f19601f8201168201806040525081019062000209919062001644565b816040019073ffffffffffffffffffffffffffffffffffffffff16908173ffffffffffffffffffffffffffffffffffffffff168152505062000255816000015162000a6360201b60201c565b156200026357505062000a1e565b62000278816040015162000a6360201b60201c565b156200028657505062000a1e565b600080826000015173ffffffffffffffffffffffffffffffffffffffff166040516024016040516020818303038152906040527f313ce567000000000000000000000000000000000000000000000000000000007bffffffffffffffffffffffffffffffffffffffffffffffffffffffff19166020820180517bffffffffffffffffffffffffffffffffffffffffffffffffffffffff8381831617835250505050604051620003369190620016f9565b6000604051808303816000865af19150503d806000811462000375576040519150601f19603f3d011682016040523d82523d6000602084013e6200037a565b606091505b50915091508115620003f55760006020825103620003e35781806020019051810190620003a891906200174d565b90506000811480620003ba575060ff81115b15620003cb57505050505062000a1e565b80846020019060ff16908160ff1681525050620003ee565b505050505062000a1e565b50620003ff565b5050505062000a1e565b600080846040015173ffffffffffffffffffffffffffffffffffffffff166040516024016040516020818303038152906040527f313ce567000000000000000000000000000000000000000000000000000000007bffffffffffffffffffffffffffffffffffffffffffffffffffffffff19166020820180517bffffffffffffffffffffffffffffffffffffffffffffffffffffffff8381831617835250505050604051620004af9190620016f9565b6000604051808303816000865af19150503d8060008114620004ee576040519150601f19603f3d011682016040523d82523d6000602084013e620004f3565b606091505b509150915081156200057257600060208251036200055e57818060200190518101906200052191906200174d565b9050600081148062000533575060ff81115b1562000546575050505050505062000a1e565b80866060019060ff16908160ff16815250506200056b565b5050505050505062000a1e565b506200057e565b50505050505062000a1e565b6000808773ffffffffffffffffffffffffffffffffffffffff16633850c7bd6040518163ffffffff1660e01b815260040160e060405180830381865afa158015620005cd573d6000803e3d6000fd5b505050506040513d601f19601f82011682018060405250810190620005f39190620018a8565b50505050509150915060008873ffffffffffffffffffffffffffffffffffffffff1663f30dba93836040518263ffffffff1660e01b81526004016200063991906200196c565b61010060405180830381865afa15801562000658573d6000803e3d6000fd5b505050506040513d601f19601f820116820180604052508101906200067e919062001a93565b5050505050509150508873ffffffffffffffffffffffffffffffffffffffff16631a6865026040518163ffffffff1660e01b8152600401602060405180830381865afa158015620006d3573d6000803e3d6000fd5b505050506040513d601f19601f82011682018060405250810190620006f9919062001b5c565b88608001906fffffffffffffffffffffffffffffffff1690816fffffffffffffffffffffffffffffffff16815250508873ffffffffffffffffffffffffffffffffffffffff1663d0c93a7c6040518163ffffffff1660e01b8152600401602060405180830381865afa15801562000774573d6000803e3d6000fd5b505050506040513d601f19601f820116820180604052508101906200079a919062001b8e565b8860e0019060020b908160020b815250508873ffffffffffffffffffffffffffffffffffffffff1663ddca3f436040518163ffffffff1660e01b8152600401602060405180830381865afa158015620007f7573d6000803e3d6000fd5b505050506040513d601f19601f820116820180604052508101906200081d919062001c00565b88610100019062ffffff16908162ffffff1681525050828860a0019073ffffffffffffffffffffffffffffffffffffffff16908173ffffffffffffffffffffffffffffffffffffffff1681525050818860c0019060020b908160020b8152505080886101200190600f0b9081600f0b81525050620008a9898360018b60e0015162000a9860201b60201c565b886101800181905250620008cb898360008b60e0015162000a9860201b60201c565b886101a00181905250876000015173ffffffffffffffffffffffffffffffffffffffff166370a082318a6040518263ffffffff1660e01b815260040162000913919062001c43565b6020604051808303816000875af115801562000933573d6000803e3d6000fd5b505050506040513d601f19601f820116820180604052508101906200095991906200174d565b88610140018181525050876040015173ffffffffffffffffffffffffffffffffffffffff166370a082318a6040518263ffffffff1660e01b8152600401620009a2919062001c43565b6020604051808303816000875af1158015620009c2573d6000803e3d6000fd5b505050506040513d601f19601f82011682018060405250810190620009e891906200174d565b88610160018181525050878b8b8151811062000a095762000a0862001615565b5b60200260200101819052505050505050505050505b8062000a2a9062001c8f565b90506200009a565b5060008160405160200162000a4891906200209b565b60405160208183030381529060405290506020810180590381f35b6000808273ffffffffffffffffffffffffffffffffffffffff163b0362000a8e576001905062000a93565b600090505b919050565b60606000600a905060008167ffffffffffffffff81111562000abf5762000abe62001400565b5b60405190808252806020026020018201604052801562000afc57816020015b62000ae8620013ad565b81526020019060019003908162000ade5790505b50905060005b8281101562000e4b5760008062000b228a8a898b62000e5960201b60201c565b9150915060008a73ffffffffffffffffffffffffffffffffffffffff1663f30dba93846040518263ffffffff1660e01b815260040162000b6391906200196c565b61010060405180830381865afa15801562000b82573d6000803e3d6000fd5b505050506040513d601f19601f8201168201806040525081019062000ba8919062001a93565b5050505050509150507ffffffffffffffffffffffffffffffffffffffffffffffffffffffffffff2761860020b8360020b121562000c97577ffffffffffffffffffffffffffffffffffffffffffffffffffffffffffff2761892508185858151811062000c1a5762000c1962001615565b5b602002602001015160000190151590811515815250508285858151811062000c475762000c4662001615565b5b60200260200101516020019060020b908160020b815250508085858151811062000c765762000c7562001615565b5b602002602001015160400190600f0b9081600f0b8152505050505062000e4b565b7ffffffffffffffffffffffffffffffffffffffffffffffffffffffffffff2761862000cc390620020bf565b60020b8360020b131562000d88577ffffffffffffffffffffffffffffffffffffffffffffffffffffffffffff2761892508185858151811062000d0b5762000d0a62001615565b5b602002602001015160000190151590811515815250508285858151811062000d385762000d3762001615565b5b60200260200101516020019060020b908160020b815250508085858151811062000d675762000d6662001615565b5b602002602001015160400190600f0b9081600f0b8152505050505062000e4b565b8185858151811062000d9f5762000d9e62001615565b5b602002602001015160000190151590811515815250508285858151811062000dcc5762000dcb62001615565b5b60200260200101516020019060020b908160020b815250508085858151811062000dfb5762000dfa62001615565b5b602002602001015160400190600f0b9081600f0b81525050838062000e209062001c8f565b9450508862000e30578262000e40565b60018362000e3f91906200210c565b5b995050505062000b02565b819350505050949350505050565b60008060008460020b8660020b8162000e775762000e766200218d565b5b05905060008660020b12801562000eab575060008560020b8760020b8162000ea45762000ea36200218d565b5b0760020b14155b1562000ebb578080600190039150505b831562000fbe5760008062000ed683620010c360201b60201c565b9150915060008160ff166001901b60018360ff166001901b030190506000818b73ffffffffffffffffffffffffffffffffffffffff16635339c296866040518263ffffffff1660e01b815260040162000f309190620021da565b602060405180830381865afa15801562000f4e573d6000803e3d6000fd5b505050506040513d601f19601f8201168201806040525081019062000f7491906200174d565b169050600081141595508562000f9257888360ff1686030262000fb2565b8862000fa982620010f060201b620003e41760201c565b840360ff168603025b965050505050620010b9565b60008062000fd560018401620010c360201b60201c565b91509150600060018260ff166001901b031990506000818b73ffffffffffffffffffffffffffffffffffffffff16635339c296866040518263ffffffff1660e01b8152600401620010279190620021da565b602060405180830381865afa15801562001045573d6000803e3d6000fd5b505050506040513d601f19601f820116820180604052508101906200106b91906200174d565b16905060008114159550856200108f57888360ff0360ff16600187010102620010b2565b8883620010a783620011d460201b620004bf1760201c565b0360ff166001870101025b9650505050505b5094509492505050565b60008060088360020b901d91506101008360020b81620010e857620010e76200218d565b5b079050915091565b6000808211620010ff57600080fd5b70010000000000000000000000000000000082106200112657608082901c91506080810190505b6801000000000000000082106200114557604082901c91506040810190505b64010000000082106200116057602082901c91506020810190505b6201000082106200117957601082901c91506010810190505b61010082106200119157600882901c91506008810190505b60108210620011a857600482901c91506004810190505b60048210620011bf57600282901c91506002810190505b60028210620011cf576001810190505b919050565b6000808211620011e357600080fd5b60ff905060006fffffffffffffffffffffffffffffffff801683161115620012115760808103905062001219565b608082901c91505b600067ffffffffffffffff8016831611156200123b5760408103905062001243565b604082901c91505b600063ffffffff801683161115620012615760208103905062001269565b602082901c91505b600061ffff80168316111562001285576010810390506200128d565b601082901c91505b600060ff801683161115620012a857600881039050620012b0565b600882901c91505b6000600f83161115620012c957600481039050620012d1565b600482901c91505b919050565b604051806101c00160405280600073ffffffffffffffffffffffffffffffffffffffff168152602001600060ff168152602001600073ffffffffffffffffffffffffffffffffffffffff168152602001600060ff16815260200160006fffffffffffffffffffffffffffffffff168152602001600073ffffffffffffffffffffffffffffffffffffffff168152602001600060020b8152602001600060020b8152602001600062ffffff1681526020016000600f0b8152602001600081526020016000815260200160608152602001606081525090565b6040518060600160405280600015158152602001600060020b81526020016000600f0b81525090565b6000604051905090565b600080fd5b600080fd5b600080fd5b6000601f19601f8301169050919050565b7f4e487b7100000000000000000000000000000000000000000000000000000000600052604160045260246000fd5b6200143a82620013ef565b810181811067ffffffffffffffff821117156200145c576200145b62001400565b5b80604052505050565b600062001471620013d6565b90506200147f82826200142f565b919050565b600067ffffffffffffffff821115620014a257620014a162001400565b5b602082029050602081019050919050565b600080fd5b600073ffffffffffffffffffffffffffffffffffffffff82169050919050565b6000620014e582620014b8565b9050919050565b620014f781620014d8565b81146200150357600080fd5b50565b6000815190506200151781620014ec565b92915050565b6000620015346200152e8462001484565b62001465565b905080838252602082019050602084028301858111156200155a5762001559620014b3565b5b835b8181101562001587578062001572888262001506565b8452602084019350506020810190506200155c565b5050509392505050565b600082601f830112620015a957620015a8620013ea565b5b8151620015bb8482602086016200151d565b91505092915050565b600060208284031215620015dd57620015dc620013e0565b5b600082015167ffffffffffffffff811115620015fe57620015fd620013e5565b5b6200160c8482850162001591565b91505092915050565b7f4e487b7100000000000000000000000000000000000000000000000000000000600052603260045260246000fd5b6000602082840312156200165d576200165c620013e0565b5b60006200166d8482850162001506565b91505092915050565b600081519050919050565b600081905092915050565b60005b83811015620016ac5780820151818401526020810190506200168f565b83811115620016bc576000848401525b50505050565b6000620016cf8262001676565b620016db818562001681565b9350620016ed8185602086016200168c565b80840191505092915050565b6000620017078284620016c2565b915081905092915050565b6000819050919050565b620017278162001712565b81146200173357600080fd5b50565b60008151905062001747816200171c565b92915050565b600060208284031215620017665762001765620013e0565b5b6000620017768482850162001736565b91505092915050565b6200178a81620014b8565b81146200179657600080fd5b50565b600081519050620017aa816200177f565b92915050565b60008160020b9050919050565b620017c881620017b0565b8114620017d457600080fd5b50565b600081519050620017e881620017bd565b92915050565b600061ffff82169050919050565b6200180781620017ee565b81146200181357600080fd5b50565b6000815190506200182781620017fc565b92915050565b600060ff82169050919050565b62001845816200182d565b81146200185157600080fd5b50565b60008151905062001865816200183a565b92915050565b60008115159050919050565b62001882816200186b565b81146200188e57600080fd5b50565b600081519050620018a28162001877565b92915050565b600080600080600080600060e0888a031215620018ca57620018c9620013e0565b5b6000620018da8a828b0162001799565b9750506020620018ed8a828b01620017d7565b9650506040620019008a828b0162001816565b9550506060620019138a828b0162001816565b9450506080620019268a828b0162001816565b93505060a0620019398a828b0162001854565b92505060c06200194c8a828b0162001891565b91505092959891949750929550565b6200196681620017b0565b82525050565b60006020820190506200198360008301846200195b565b92915050565b60006fffffffffffffffffffffffffffffffff82169050919050565b620019b08162001989565b8114620019bc57600080fd5b50565b600081519050620019d081620019a5565b92915050565b600081600f0b9050919050565b620019ee81620019d6565b8114620019fa57600080fd5b50565b60008151905062001a0e81620019e3565b92915050565b60008160060b9050919050565b62001a2c8162001a14565b811462001a3857600080fd5b50565b60008151905062001a4c8162001a21565b92915050565b600063ffffffff82169050919050565b62001a6d8162001a52565b811462001a7957600080fd5b50565b60008151905062001a8d8162001a62565b92915050565b600080600080600080600080610100898b03121562001ab75762001ab6620013e0565b5b600062001ac78b828c01620019bf565b985050602062001ada8b828c01620019fd565b975050604062001aed8b828c0162001736565b965050606062001b008b828c0162001736565b955050608062001b138b828c0162001a3b565b94505060a062001b268b828c0162001799565b93505060c062001b398b828c0162001a7c565b92505060e062001b4c8b828c0162001891565b9150509295985092959890939650565b60006020828403121562001b755762001b74620013e0565b5b600062001b8584828501620019bf565b91505092915050565b60006020828403121562001ba75762001ba6620013e0565b5b600062001bb784828501620017d7565b91505092915050565b600062ffffff82169050919050565b62001bda8162001bc0565b811462001be657600080fd5b50565b60008151905062001bfa8162001bcf565b92915050565b60006020828403121562001c195762001c18620013e0565b5b600062001c298482850162001be9565b91505092915050565b62001c3d81620014d8565b82525050565b600060208201905062001c5a600083018462001c32565b92915050565b7f4e487b7100000000000000000000000000000000000000000000000000000000600052601160045260246000fd5b600062001c9c8262001712565b91507fffffffffffffffffffffffffffffffffffffffffffffffffffffffffffffffff820362001cd15762001cd062001c60565b5b600182019050919050565b600081519050919050565b600082825260208201905092915050565b6000819050602082019050919050565b62001d1381620014d8565b82525050565b62001d24816200182d565b82525050565b62001d358162001989565b82525050565b62001d4681620014b8565b82525050565b62001d5781620017b0565b82525050565b62001d688162001bc0565b82525050565b62001d7981620019d6565b82525050565b62001d8a8162001712565b82525050565b600081519050919050565b600082825260208201905092915050565b6000819050602082019050919050565b62001dc7816200186b565b82525050565b60608201600082015162001de5600085018262001dbc565b50602082015162001dfa602085018262001d4c565b50604082015162001e0f604085018262001d6e565b50505050565b600062001e23838362001dcd565b60608301905092915050565b6000602082019050919050565b600062001e498262001d90565b62001e55818562001d9b565b935062001e628362001dac565b8060005b8381101562001e9957815162001e7d888262001e15565b975062001e8a8362001e2f565b92505060018101905062001e66565b5085935050505092915050565b60006101c08301600083015162001ec1600086018262001d08565b50602083015162001ed6602086018262001d19565b50604083015162001eeb604086018262001d08565b50606083015162001f00606086018262001d19565b50608083015162001f15608086018262001d2a565b5060a083015162001f2a60a086018262001d3b565b5060c083015162001f3f60c086018262001d4c565b5060e083015162001f5460e086018262001d4c565b5061010083015162001f6b61010086018262001d5d565b5061012083015162001f8261012086018262001d6e565b5061014083015162001f9961014086018262001d7f565b5061016083015162001fb061016086018262001d7f565b5061018083015184820361018086015262001fcc828262001e3c565b9150506101a08301518482036101a086015262001fea828262001e3c565b9150508091505092915050565b600062002005838362001ea6565b905092915050565b6000602082019050919050565b6000620020278262001cdc565b62002033818562001ce7565b935083602082028501620020478562001cf8565b8060005b8581101562002089578484038952815162002067858262001ff7565b945062002074836200200d565b925060208a019950506001810190506200204b565b50829750879550505050505092915050565b60006020820190508181036000830152620020b781846200201a565b905092915050565b6000620020cc82620017b0565b91507fffffffffffffffffffffffffffffffffffffffffffffffffffffffffff800000820362002101576200210062001c60565b5b816000039050919050565b60006200211982620017b0565b91506200212683620017b0565b9250827fffffffffffffffffffffffffffffffffffffffffffffffffffffffffff8000000182126000841215161562002164576200216362001c60565b5b82627fffff01821360008412161562002182576200218162001c60565b5b828203905092915050565b7f4e487b7100000000000000000000000000000000000000000000000000000000600052601260045260246000fd5b60008160010b9050919050565b620021d481620021bc565b82525050565b6000602082019050620021f16000830184620021c9565b9291505056fe",
    "linkReferences": {}
  },
  "deployedBytecode": {
    "object": "0x608060405234801561001057600080fd5b506004361061002b5760003560e01c8063bfe4161e14610030575b600080fd5b61004a60048036038101906100459190610903565b610060565b6040516100579190610a95565b60405180910390f35b60606000600a905060008167ffffffffffffffff81111561008457610083610ab7565b5b6040519080825280602002602001820160405280156100bd57816020015b6100aa610806565b8152602001906001900390816100a25790505b50905060005b828110156103d6576000806100da8a8a898b6105b4565b9150915060008a73ffffffffffffffffffffffffffffffffffffffff1663f30dba93846040518263ffffffff1660e01b81526004016101199190610af5565b61010060405180830381865afa158015610137573d6000803e3d6000fd5b505050506040513d601f19601f8201168201806040525081019061015b9190610c70565b5050505050509150507ffffffffffffffffffffffffffffffffffffffffffffffffffffffffffff2761860020b8360020b121561023f577ffffffffffffffffffffffffffffffffffffffffffffffffffffffffffff276189250818585815181106101c9576101c8610d26565b5b60200260200101516000019015159081151581525050828585815181106101f3576101f2610d26565b5b60200260200101516020019060020b908160020b815250508085858151811061021f5761021e610d26565b5b602002602001015160400190600f0b9081600f0b815250505050506103d6565b7ffffffffffffffffffffffffffffffffffffffffffffffffffffffffffff2761861026990610d84565b60020b8360020b1315610323577ffffffffffffffffffffffffffffffffffffffffffffffffffffffffffff276189250818585815181106102ad576102ac610d26565b5b60200260200101516000019015159081151581525050828585815181106102d7576102d6610d26565b5b60200260200101516020019060020b908160020b815250508085858151811061030357610302610d26565b5b602002602001015160400190600f0b9081600f0b815250505050506103d6565b8185858151811061033757610336610d26565b5b602002602001015160000190151590811515815250508285858151811061036157610360610d26565b5b60200260200101516020019060020b908160020b815250508085858151811061038d5761038c610d26565b5b602002602001015160400190600f0b9081600f0b8152505083806103b090610dcc565b945050886103be57826103cc565b6001836103cb9190610e14565b5b99505050506100c3565b819350505050949350505050565b60008082116103f257600080fd5b700100000000000000000000000000000000821061041857608082901c91506080810190505b68010000000000000000821061043657604082901c91506040810190505b640100000000821061045057602082901c91506020810190505b62010000821061046857601082901c91506010810190505b610100821061047f57600882901c91506008810190505b6010821061049557600482901c91506004810190505b600482106104ab57600282901c91506002810190505b600282106104ba576001810190505b919050565b60008082116104cd57600080fd5b60ff905060006fffffffffffffffffffffffffffffffff8016831611156104f957608081039050610501565b608082901c91505b600067ffffffffffffffff80168316111561052157604081039050610529565b604082901c91505b600063ffffffff8016831611156105455760208103905061054d565b602082901c91505b600061ffff8016831611156105675760108103905061056f565b601082901c91505b600060ff80168316111561058857600881039050610590565b600882901c91505b6000600f831611156105a7576004810390506105af565b600482901c91505b919050565b60008060008460020b8660020b816105cf576105ce610e8b565b5b05905060008660020b1280156105ff575060008560020b8760020b816105f8576105f7610e8b565b5b0760020b14155b1561060e578080600190039150505b83156106f357600080610620836107dc565b9150915060008160ff166001901b60018360ff166001901b030190506000818b73ffffffffffffffffffffffffffffffffffffffff16635339c296866040518263ffffffff1660e01b81526004016106789190610ed6565b602060405180830381865afa158015610695573d6000803e3d6000fd5b505050506040513d601f19601f820116820180604052508101906106b99190610ef1565b16905060008114159550856106d557888360ff168603026106e8565b886106df826103e4565b840360ff168603025b9650505050506107d2565b600080610702600184016107dc565b91509150600060018260ff166001901b031990506000818b73ffffffffffffffffffffffffffffffffffffffff16635339c296866040518263ffffffff1660e01b81526004016107529190610ed6565b602060405180830381865afa15801561076f573d6000803e3d6000fd5b505050506040513d601f19601f820116820180604052508101906107939190610ef1565b16905060008114159550856107b557888360ff0360ff166001870101026107cb565b88836107c0836104bf565b0360ff166001870101025b9650505050505b5094509492505050565b60008060088360020b901d91506101008360020b816107fe576107fd610e8b565b5b079050915091565b6040518060600160405280600015158152602001600060020b81526020016000600f0b81525090565b600080fd5b600073ffffffffffffffffffffffffffffffffffffffff82169050919050565b600061085f82610834565b9050919050565b61086f81610854565b811461087a57600080fd5b50565b60008135905061088c81610866565b92915050565b60008160020b9050919050565b6108a881610892565b81146108b357600080fd5b50565b6000813590506108c58161089f565b92915050565b60008115159050919050565b6108e0816108cb565b81146108eb57600080fd5b50565b6000813590506108fd816108d7565b92915050565b6000806000806080858703121561091d5761091c61082f565b5b600061092b8782880161087d565b945050602061093c878288016108b6565b935050604061094d878288016108ee565b925050606061095e878288016108b6565b91505092959194509250565b600081519050919050565b600082825260208201905092915050565b6000819050602082019050919050565b61099f816108cb565b82525050565b6109ae81610892565b82525050565b600081600f0b9050919050565b6109ca816109b4565b82525050565b6060820160008201516109e66000850182610996565b5060208201516109f960208501826109a5565b506040820151610a0c60408501826109c1565b50505050565b6000610a1e83836109d0565b60608301905092915050565b6000602082019050919050565b6000610a428261096a565b610a4c8185610975565b9350610a5783610986565b8060005b83811015610a88578151610a6f8882610a12565b9750610a7a83610a2a565b925050600181019050610a5b565b5085935050505092915050565b60006020820190508181036000830152610aaf8184610a37565b905092915050565b7f4e487b7100000000000000000000000000000000000000000000000000000000600052604160045260246000fd5b610aef81610892565b82525050565b6000602082019050610b0a6000830184610ae6565b92915050565b60006fffffffffffffffffffffffffffffffff82169050919050565b610b3581610b10565b8114610b4057600080fd5b50565b600081519050610b5281610b2c565b92915050565b610b61816109b4565b8114610b6c57600080fd5b50565b600081519050610b7e81610b58565b92915050565b6000819050919050565b610b9781610b84565b8114610ba257600080fd5b50565b600081519050610bb481610b8e565b92915050565b60008160060b9050919050565b610bd081610bba565b8114610bdb57600080fd5b50565b600081519050610bed81610bc7565b92915050565b610bfc81610834565b8114610c0757600080fd5b50565b600081519050610c1981610bf3565b92915050565b600063ffffffff82169050919050565b610c3881610c1f565b8114610c4357600080fd5b50565b600081519050610c5581610c2f565b92915050565b600081519050610c6a816108d7565b92915050565b600080600080600080600080610100898b031215610c9157610c9061082f565b5b6000610c9f8b828c01610b43565b9850506020610cb08b828c01610b6f565b9750506040610cc18b828c01610ba5565b9650506060610cd28b828c01610ba5565b9550506080610ce38b828c01610bde565b94505060a0610cf48b828c01610c0a565b93505060c0610d058b828c01610c46565b92505060e0610d168b828c01610c5b565b9150509295985092959890939650565b7f4e487b7100000000000000000000000000000000000000000000000000000000600052603260045260246000fd5b7f4e487b7100000000000000000000000000000000000000000000000000000000600052601160045260246000fd5b6000610d8f82610892565b91507fffffffffffffffffffffffffffffffffffffffffffffffffffffffffff8000008203610dc157610dc0610d55565b5b816000039050919050565b6000610dd782610b84565b91507fffffffffffffffffffffffffffffffffffffffffffffffffffffffffffffffff8203610e0957610e08610d55565b5b600182019050919050565b6000610e1f82610892565b9150610e2a83610892565b9250827fffffffffffffffffffffffffffffffffffffffffffffffffffffffffff80000001821260008412151615610e6557610e64610d55565b5b82627fffff018213600084121615610e8057610e7f610d55565b5b828203905092915050565b7f4e487b7100000000000000000000000000000000000000000000000000000000600052601260045260246000fd5b60008160010b9050919050565b610ed081610eba565b82525050565b6000602082019050610eeb6000830184610ec7565b92915050565b600060208284031215610f0757610f0661082f565b5b6000610f1584828501610ba5565b9150509291505056fea264697066735822122085f787870963ded875b2c3ff824f76f07414977abf5974d41bc865aa1d5278b764736f6c634300080f0033",
    "linkReferences": {}
  },
  "methodIdentifiers": {
    "getTickBitmap(address,int24,bool,int24)": "bfe4161e"
  },
  "id": 0
}