{
  "abi": [
    {
      "inputs": [
        {
          "internalType": "address[]",
          "name": "pools",
          "type": "address[]"
        }
      ],
      "stateMutability": "nonpayable",
      "type": "constructor"
    },
    {
      "inputs": [
        {
          "internalType": "address",
          "name": "pool",
          "type": "address"
        },
        {
          "internalType": "int24",
          "name": "currentTick",
          "type": "int24"
        },
        {
          "internalType": "bool",
          "name": "zeroForOne",
          "type": "bool"
        },
        {
          "internalType": "int24",
          "name": "tickSpacing",
          "type": "int24"
        }
      ],
      "name": "getTickBitmap",
      "outputs": [
        {
          "components": [
            {
              "internalType": "bool",
              "name": "initialized",
              "type": "bool"
            },
            {
              "internalType": "int24",
              "name": "tick",
              "type": "int24"
            },
            {
              "internalType": "int128",
              "name": "liquidityNet",
              "type": "int128"
            }
          ],
          "internalType": "struct UniswapV3DataAggregator.TickData[]",
          "name": "tickData",
          "type": "tuple[]"
        }
      ],
      "stateMutability": "nonpayable",
      "type": "function"
    }
  ],
  "bytecode": {
    "object": "0x60806040523480156200001157600080fd5b506040516200223e3803806200223e83398181016040528101906200003791906200161c565b6000815167ffffffffffffffff81111562000057576200005662001458565b5b6040519080825280602002602001820160405280156200009457816020015b6200008062001311565b815260200190600190039081620000765790505b50905060005b825181101562000a6d576000838281518110620000bc57620000bb6200166d565b5b60200260200101519050620000d78162000a9e60201b60201c565b15620000e4575062000a59565b620000ee62001311565b81816000019073ffffffffffffffffffffffffffffffffffffffff16908173ffffffffffffffffffffffffffffffffffffffff16815250508173ffffffffffffffffffffffffffffffffffffffff16630dfe16816040518163ffffffff1660e01b8152600401602060405180830381865afa15801562000172573d6000803e3d6000fd5b505050506040513d601f19601f820116820180604052508101906200019891906200169c565b816020019073ffffffffffffffffffffffffffffffffffffffff16908173ffffffffffffffffffffffffffffffffffffffff16815250508173ffffffffffffffffffffffffffffffffffffffff1663d21220a76040518163ffffffff1660e01b8152600401602060405180830381865afa1580156200021b573d6000803e3d6000fd5b505050506040513d601f19601f820116820180604052508101906200024191906200169c565b816060019073ffffffffffffffffffffffffffffffffffffffff16908173ffffffffffffffffffffffffffffffffffffffff16815250506200028d816020015162000a9e60201b60201c565b156200029b57505062000a59565b620002b0816060015162000a9e60201b60201c565b15620002be57505062000a59565b600080826020015173ffffffffffffffffffffffffffffffffffffffff166040516024016040516020818303038152906040527f313ce567000000000000000000000000000000000000000000000000000000007bffffffffffffffffffffffffffffffffffffffffffffffffffffffff19166020820180517bffffffffffffffffffffffffffffffffffffffffffffffffffffffff83818316178352505050506040516200036e919062001747565b6000604051808303816000865af19150503d8060008114620003ad576040519150601f19603f3d011682016040523d82523d6000602084013e620003b2565b606091505b509150915081156200042d57600060208251036200041b5781806020019051810190620003e091906200179b565b90506000811480620003f2575060ff81115b156200040357505050505062000a59565b80846040019060ff16908160ff168152505062000426565b505050505062000a59565b5062000437565b5050505062000a59565b600080846060015173ffffffffffffffffffffffffffffffffffffffff166040516024016040516020818303038152906040527f313ce567000000000000000000000000000000000000000000000000000000007bffffffffffffffffffffffffffffffffffffffffffffffffffffffff19166020820180517bffffffffffffffffffffffffffffffffffffffffffffffffffffffff8381831617835250505050604051620004e7919062001747565b6000604051808303816000865af19150503d806000811462000526576040519150601f19603f3d011682016040523d82523d6000602084013e6200052b565b606091505b50915091508115620005aa57600060208251036200059657818060200190518101906200055991906200179b565b905060008114806200056b575060ff81115b156200057e575050505050505062000a59565b80866080019060ff16908160ff1681525050620005a3565b5050505050505062000a59565b50620005b6565b50505050505062000a59565b6000808773ffffffffffffffffffffffffffffffffffffffff16633850c7bd6040518163ffffffff1660e01b815260040160e060405180830381865afa15801562000605573d6000803e3d6000fd5b505050506040513d601f19601f820116820180604052508101906200062b9190620018f6565b50505050509150915060008873ffffffffffffffffffffffffffffffffffffffff1663f30dba93836040518263ffffffff1660e01b8152600401620006719190620019ba565b61010060405180830381865afa15801562000690573d6000803e3d6000fd5b505050506040513d601f19601f82011682018060405250810190620006b6919062001ae1565b5050505050509150508873ffffffffffffffffffffffffffffffffffffffff16631a6865026040518163ffffffff1660e01b8152600401602060405180830381865afa1580156200070b573d6000803e3d6000fd5b505050506040513d601f19601f8201168201806040525081019062000731919062001baa565b8860a001906fffffffffffffffffffffffffffffffff1690816fffffffffffffffffffffffffffffffff16815250508873ffffffffffffffffffffffffffffffffffffffff1663d0c93a7c6040518163ffffffff1660e01b8152600401602060405180830381865afa158015620007ac573d6000803e3d6000fd5b505050506040513d601f19601f82011682018060405250810190620007d2919062001bdc565b88610100019060020b908160020b815250508873ffffffffffffffffffffffffffffffffffffffff1663ddca3f436040518163ffffffff1660e01b8152600401602060405180830381865afa15801562000830573d6000803e3d6000fd5b505050506040513d601f19601f8201168201806040525081019062000856919062001c4e565b88610120019062ffffff16908162ffffff1681525050828860c0019073ffffffffffffffffffffffffffffffffffffffff16908173ffffffffffffffffffffffffffffffffffffffff1681525050818860e0019060020b908160020b8152505080886101400190600f0b9081600f0b81525050620008e3898360018b610100015162000ad360201b60201c565b886101a0018190525062000906898360008b610100015162000ad360201b60201c565b886101c00181905250876020015173ffffffffffffffffffffffffffffffffffffffff166370a082318a6040518263ffffffff1660e01b81526004016200094e919062001c91565b6020604051808303816000875af11580156200096e573d6000803e3d6000fd5b505050506040513d601f19601f820116820180604052508101906200099491906200179b565b88610160018181525050876060015173ffffffffffffffffffffffffffffffffffffffff166370a082318a6040518263ffffffff1660e01b8152600401620009dd919062001c91565b6020604051808303816000875af1158015620009fd573d6000803e3d6000fd5b505050506040513d601f19601f8201168201806040525081019062000a2391906200179b565b88610180018181525050878b8b8151811062000a445762000a436200166d565b5b60200260200101819052505050505050505050505b8062000a659062001cdd565b90506200009a565b5060008160405160200162000a83919062002100565b60405160208183030381529060405290506020810180590381f35b6000808273ffffffffffffffffffffffffffffffffffffffff163b0362000ac9576001905062000ace565b600090505b919050565b60606000600a905060008167ffffffffffffffff81111562000afa5762000af962001458565b5b60405190808252806020026020018201604052801562000b3757816020015b62000b2362001405565b81526020019060019003908162000b195790505b50905060005b8281101562000e865760008062000b5d8a8a898b62000e9460201b60201c565b9150915060008a73ffffffffffffffffffffffffffffffffffffffff1663f30dba93846040518263ffffffff1660e01b815260040162000b9e9190620019ba565b61010060405180830381865afa15801562000bbd573d6000803e3d6000fd5b505050506040513d601f19601f8201168201806040525081019062000be3919062001ae1565b5050505050509150507ffffffffffffffffffffffffffffffffffffffffffffffffffffffffffff2761860020b8360020b121562000cd2577ffffffffffffffffffffffffffffffffffffffffffffffffffffffffffff2761892508185858151811062000c555762000c546200166d565b5b602002602001015160000190151590811515815250508285858151811062000c825762000c816200166d565b5b60200260200101516020019060020b908160020b815250508085858151811062000cb15762000cb06200166d565b5b602002602001015160400190600f0b9081600f0b8152505050505062000e86565b7ffffffffffffffffffffffffffffffffffffffffffffffffffffffffffff2761862000cfe9062002124565b60020b8360020b131562000dc3577ffffffffffffffffffffffffffffffffffffffffffffffffffffffffffff2761892508185858151811062000d465762000d456200166d565b5b602002602001015160000190151590811515815250508285858151811062000d735762000d726200166d565b5b60200260200101516020019060020b908160020b815250508085858151811062000da25762000da16200166d565b5b602002602001015160400190600f0b9081600f0b8152505050505062000e86565b8185858151811062000dda5762000dd96200166d565b5b602002602001015160000190151590811515815250508285858151811062000e075762000e066200166d565b5b60200260200101516020019060020b908160020b815250508085858151811062000e365762000e356200166d565b5b602002602001015160400190600f0b9081600f0b81525050838062000e5b9062001cdd565b9450508862000e6b578262000e7b565b60018362000e7a919062002171565b5b995050505062000b3d565b819350505050949350505050565b60008060008460020b8660020b8162000eb25762000eb1620021d3565b5b05905060008660020b12801562000ee6575060008560020b8760020b8162000edf5762000ede620021d3565b5b0760020b14155b1562000ef6578080600190039150505b831562000ff95760008062000f1183620010fe60201b60201c565b9150915060008160ff166001901b60018360ff166001901b030190506000818b73ffffffffffffffffffffffffffffffffffffffff16635339c296866040518263ffffffff1660e01b815260040162000f6b919062002220565b602060405180830381865afa15801562000f89573d6000803e3d6000fd5b505050506040513d601f19601f8201168201806040525081019062000faf91906200179b565b169050600081141595508562000fcd57888360ff1686030262000fed565b8862000fe4826200112b60201b620003e41760201c565b840360ff168603025b965050505050620010f4565b6000806200101060018401620010fe60201b60201c565b91509150600060018260ff166001901b031990506000818b73ffffffffffffffffffffffffffffffffffffffff16635339c296866040518263ffffffff1660e01b815260040162001062919062002220565b602060405180830381865afa15801562001080573d6000803e3d6000fd5b505050506040513d601f19601f82011682018060405250810190620010a691906200179b565b1690506000811415955085620010ca57888360ff0360ff16600187010102620010ed565b8883620010e2836200120f60201b620004bf1760201c565b0360ff166001870101025b9650505050505b5094509492505050565b60008060088360020b901d91506101008360020b81620011235762001122620021d3565b5b079050915091565b60008082116200113a57600080fd5b70010000000000000000000000000000000082106200116157608082901c91506080810190505b6801000000000000000082106200118057604082901c91506040810190505b64010000000082106200119b57602082901c91506020810190505b620100008210620011b457601082901c91506010810190505b6101008210620011cc57600882901c91506008810190505b60108210620011e357600482901c91506004810190505b60048210620011fa57600282901c91506002810190505b600282106200120a576001810190505b919050565b60008082116200121e57600080fd5b60ff905060006fffffffffffffffffffffffffffffffff8016831611156200124c5760808103905062001254565b608082901c91505b600067ffffffffffffffff80168316111562001276576040810390506200127e565b604082901c91505b600063ffffffff8016831611156200129c57602081039050620012a4565b602082901c91505b600061ffff801683161115620012c057601081039050620012c8565b601082901c91505b600060ff801683161115620012e357600881039050620012eb565b600882901c91505b6000600f8316111562001304576004810390506200130c565b600482901c91505b919050565b604051806101e00160405280600073ffffffffffffffffffffffffffffffffffffffff168152602001600073ffffffffffffffffffffffffffffffffffffffff168152602001600060ff168152602001600073ffffffffffffffffffffffffffffffffffffffff168152602001600060ff16815260200160006fffffffffffffffffffffffffffffffff168152602001600073ffffffffffffffffffffffffffffffffffffffff168152602001600060020b8152602001600060020b8152602001600062ffffff1681526020016000600f0b8152602001600081526020016000815260200160608152602001606081525090565b6040518060600160405280600015158152602001600060020b81526020016000600f0b81525090565b6000604051905090565b600080fd5b600080fd5b600080fd5b6000601f19601f8301169050919050565b7f4e487b7100000000000000000000000000000000000000000000000000000000600052604160045260246000fd5b620014928262001447565b810181811067ffffffffffffffff82111715620014b457620014b362001458565b5b80604052505050565b6000620014c96200142e565b9050620014d7828262001487565b919050565b600067ffffffffffffffff821115620014fa57620014f962001458565b5b602082029050602081019050919050565b600080fd5b600073ffffffffffffffffffffffffffffffffffffffff82169050919050565b60006200153d8262001510565b9050919050565b6200154f8162001530565b81146200155b57600080fd5b50565b6000815190506200156f8162001544565b92915050565b60006200158c6200158684620014dc565b620014bd565b90508083825260208201905060208402830185811115620015b257620015b16200150b565b5b835b81811015620015df5780620015ca88826200155e565b845260208401935050602081019050620015b4565b5050509392505050565b600082601f83011262001601576200160062001442565b5b81516200161384826020860162001575565b91505092915050565b60006020828403121562001635576200163462001438565b5b600082015167ffffffffffffffff8111156200165657620016556200143d565b5b6200166484828501620015e9565b91505092915050565b7f4e487b7100000000000000000000000000000000000000000000000000000000600052603260045260246000fd5b600060208284031215620016b557620016b462001438565b5b6000620016c5848285016200155e565b91505092915050565b600081519050919050565b600081905092915050565b60005b8381101562001704578082015181840152602081019050620016e7565b60008484015250505050565b60006200171d82620016ce565b620017298185620016d9565b93506200173b818560208601620016e4565b80840191505092915050565b600062001755828462001710565b915081905092915050565b6000819050919050565b620017758162001760565b81146200178157600080fd5b50565b60008151905062001795816200176a565b92915050565b600060208284031215620017b457620017b362001438565b5b6000620017c48482850162001784565b91505092915050565b620017d88162001510565b8114620017e457600080fd5b50565b600081519050620017f881620017cd565b92915050565b60008160020b9050919050565b6200181681620017fe565b81146200182257600080fd5b50565b60008151905062001836816200180b565b92915050565b600061ffff82169050919050565b62001855816200183c565b81146200186157600080fd5b50565b60008151905062001875816200184a565b92915050565b600060ff82169050919050565b62001893816200187b565b81146200189f57600080fd5b50565b600081519050620018b38162001888565b92915050565b60008115159050919050565b620018d081620018b9565b8114620018dc57600080fd5b50565b600081519050620018f081620018c5565b92915050565b600080600080600080600060e0888a03121562001918576200191762001438565b5b6000620019288a828b01620017e7565b97505060206200193b8a828b0162001825565b96505060406200194e8a828b0162001864565b9550506060620019618a828b0162001864565b9450506080620019748a828b0162001864565b93505060a0620019878a828b01620018a2565b92505060c06200199a8a828b01620018df565b91505092959891949750929550565b620019b481620017fe565b82525050565b6000602082019050620019d16000830184620019a9565b92915050565b60006fffffffffffffffffffffffffffffffff82169050919050565b620019fe81620019d7565b811462001a0a57600080fd5b50565b60008151905062001a1e81620019f3565b92915050565b600081600f0b9050919050565b62001a3c8162001a24565b811462001a4857600080fd5b50565b60008151905062001a5c8162001a31565b92915050565b60008160060b9050919050565b62001a7a8162001a62565b811462001a8657600080fd5b50565b60008151905062001a9a8162001a6f565b92915050565b600063ffffffff82169050919050565b62001abb8162001aa0565b811462001ac757600080fd5b50565b60008151905062001adb8162001ab0565b92915050565b600080600080600080600080610100898b03121562001b055762001b0462001438565b5b600062001b158b828c0162001a0d565b985050602062001b288b828c0162001a4b565b975050604062001b3b8b828c0162001784565b965050606062001b4e8b828c0162001784565b955050608062001b618b828c0162001a89565b94505060a062001b748b828c01620017e7565b93505060c062001b878b828c0162001aca565b92505060e062001b9a8b828c01620018df565b9150509295985092959890939650565b60006020828403121562001bc35762001bc262001438565b5b600062001bd38482850162001a0d565b91505092915050565b60006020828403121562001bf55762001bf462001438565b5b600062001c058482850162001825565b91505092915050565b600062ffffff82169050919050565b62001c288162001c0e565b811462001c3457600080fd5b50565b60008151905062001c488162001c1d565b92915050565b60006020828403121562001c675762001c6662001438565b5b600062001c778482850162001c37565b91505092915050565b62001c8b8162001530565b82525050565b600060208201905062001ca8600083018462001c80565b92915050565b7f4e487b7100000000000000000000000000000000000000000000000000000000600052601160045260246000fd5b600062001cea8262001760565b91507fffffffffffffffffffffffffffffffffffffffffffffffffffffffffffffffff820362001d1f5762001d1e62001cae565b5b600182019050919050565b600081519050919050565b600082825260208201905092915050565b6000819050602082019050919050565b62001d618162001530565b82525050565b62001d72816200187b565b82525050565b62001d8381620019d7565b82525050565b62001d948162001510565b82525050565b62001da581620017fe565b82525050565b62001db68162001c0e565b82525050565b62001dc78162001a24565b82525050565b62001dd88162001760565b82525050565b600081519050919050565b600082825260208201905092915050565b6000819050602082019050919050565b62001e1581620018b9565b82525050565b60608201600082015162001e33600085018262001e0a565b50602082015162001e48602085018262001d9a565b50604082015162001e5d604085018262001dbc565b50505050565b600062001e71838362001e1b565b60608301905092915050565b6000602082019050919050565b600062001e978262001dde565b62001ea3818562001de9565b935062001eb08362001dfa565b8060005b8381101562001ee757815162001ecb888262001e63565b975062001ed88362001e7d565b92505060018101905062001eb4565b5085935050505092915050565b60006101e08301600083015162001f0f600086018262001d56565b50602083015162001f24602086018262001d56565b50604083015162001f39604086018262001d67565b50606083015162001f4e606086018262001d56565b50608083015162001f63608086018262001d67565b5060a083015162001f7860a086018262001d78565b5060c083015162001f8d60c086018262001d89565b5060e083015162001fa260e086018262001d9a565b5061010083015162001fb961010086018262001d9a565b5061012083015162001fd061012086018262001dab565b5061014083015162001fe761014086018262001dbc565b5061016083015162001ffe61016086018262001dcd565b506101808301516200201561018086018262001dcd565b506101a08301518482036101a086015262002031828262001e8a565b9150506101c08301518482036101c08601526200204f828262001e8a565b9150508091505092915050565b60006200206a838362001ef4565b905092915050565b6000602082019050919050565b60006200208c8262001d2a565b62002098818562001d35565b935083602082028501620020ac8562001d46565b8060005b85811015620020ee5784840389528151620020cc85826200205c565b9450620020d98362002072565b925060208a01995050600181019050620020b0565b50829750879550505050505092915050565b600060208201905081810360008301526200211c81846200207f565b905092915050565b60006200213182620017fe565b91507fffffffffffffffffffffffffffffffffffffffffffffffffffffffffff800000820362002166576200216562001cae565b5b816000039050919050565b60006200217e82620017fe565b91506200218b83620017fe565b92508282039050627fffff81137fffffffffffffffffffffffffffffffffffffffffffffffffffffffffff80000082121715620021cd57620021cc62001cae565b5b92915050565b7f4e487b7100000000000000000000000000000000000000000000000000000000600052601260045260246000fd5b60008160010b9050919050565b6200221a8162002202565b82525050565b60006020820190506200223760008301846200220f565b9291505056fe",
    "linkReferences": {}
  },
  "deployedBytecode": {
    "object": "0x608060405234801561001057600080fd5b506004361061002b5760003560e01c8063bfe4161e14610030575b600080fd5b61004a60048036038101906100459190610903565b610060565b6040516100579190610a95565b60405180910390f35b60606000600a905060008167ffffffffffffffff81111561008457610083610ab7565b5b6040519080825280602002602001820160405280156100bd57816020015b6100aa610806565b8152602001906001900390816100a25790505b50905060005b828110156103d6576000806100da8a8a898b6105b4565b9150915060008a73ffffffffffffffffffffffffffffffffffffffff1663f30dba93846040518263ffffffff1660e01b81526004016101199190610af5565b61010060405180830381865afa158015610137573d6000803e3d6000fd5b505050506040513d601f19601f8201168201806040525081019061015b9190610c70565b5050505050509150507ffffffffffffffffffffffffffffffffffffffffffffffffffffffffffff2761860020b8360020b121561023f577ffffffffffffffffffffffffffffffffffffffffffffffffffffffffffff276189250818585815181106101c9576101c8610d26565b5b60200260200101516000019015159081151581525050828585815181106101f3576101f2610d26565b5b60200260200101516020019060020b908160020b815250508085858151811061021f5761021e610d26565b5b602002602001015160400190600f0b9081600f0b815250505050506103d6565b7ffffffffffffffffffffffffffffffffffffffffffffffffffffffffffff2761861026990610d84565b60020b8360020b1315610323577ffffffffffffffffffffffffffffffffffffffffffffffffffffffffffff276189250818585815181106102ad576102ac610d26565b5b60200260200101516000019015159081151581525050828585815181106102d7576102d6610d26565b5b60200260200101516020019060020b908160020b815250508085858151811061030357610302610d26565b5b602002602001015160400190600f0b9081600f0b815250505050506103d6565b8185858151811061033757610336610d26565b5b602002602001015160000190151590811515815250508285858151811061036157610360610d26565b5b60200260200101516020019060020b908160020b815250508085858151811061038d5761038c610d26565b5b602002602001015160400190600f0b9081600f0b8152505083806103b090610dcc565b945050886103be57826103cc565b6001836103cb9190610e14565b5b99505050506100c3565b819350505050949350505050565b60008082116103f257600080fd5b700100000000000000000000000000000000821061041857608082901c91506080810190505b68010000000000000000821061043657604082901c91506040810190505b640100000000821061045057602082901c91506020810190505b62010000821061046857601082901c91506010810190505b610100821061047f57600882901c91506008810190505b6010821061049557600482901c91506004810190505b600482106104ab57600282901c91506002810190505b600282106104ba576001810190505b919050565b60008082116104cd57600080fd5b60ff905060006fffffffffffffffffffffffffffffffff8016831611156104f957608081039050610501565b608082901c91505b600067ffffffffffffffff80168316111561052157604081039050610529565b604082901c91505b600063ffffffff8016831611156105455760208103905061054d565b602082901c91505b600061ffff8016831611156105675760108103905061056f565b601082901c91505b600060ff80168316111561058857600881039050610590565b600882901c91505b6000600f831611156105a7576004810390506105af565b600482901c91505b919050565b60008060008460020b8660020b816105cf576105ce610e6f565b5b05905060008660020b1280156105ff575060008560020b8760020b816105f8576105f7610e6f565b5b0760020b14155b1561060e578080600190039150505b83156106f357600080610620836107dc565b9150915060008160ff166001901b60018360ff166001901b030190506000818b73ffffffffffffffffffffffffffffffffffffffff16635339c296866040518263ffffffff1660e01b81526004016106789190610eba565b602060405180830381865afa158015610695573d6000803e3d6000fd5b505050506040513d601f19601f820116820180604052508101906106b99190610ed5565b16905060008114159550856106d557888360ff168603026106e8565b886106df826103e4565b840360ff168603025b9650505050506107d2565b600080610702600184016107dc565b91509150600060018260ff166001901b031990506000818b73ffffffffffffffffffffffffffffffffffffffff16635339c296866040518263ffffffff1660e01b81526004016107529190610eba565b602060405180830381865afa15801561076f573d6000803e3d6000fd5b505050506040513d601f19601f820116820180604052508101906107939190610ed5565b16905060008114159550856107b557888360ff0360ff166001870101026107cb565b88836107c0836104bf565b0360ff166001870101025b9650505050505b5094509492505050565b60008060088360020b901d91506101008360020b816107fe576107fd610e6f565b5b079050915091565b6040518060600160405280600015158152602001600060020b81526020016000600f0b81525090565b600080fd5b600073ffffffffffffffffffffffffffffffffffffffff82169050919050565b600061085f82610834565b9050919050565b61086f81610854565b811461087a57600080fd5b50565b60008135905061088c81610866565b92915050565b60008160020b9050919050565b6108a881610892565b81146108b357600080fd5b50565b6000813590506108c58161089f565b92915050565b60008115159050919050565b6108e0816108cb565b81146108eb57600080fd5b50565b6000813590506108fd816108d7565b92915050565b6000806000806080858703121561091d5761091c61082f565b5b600061092b8782880161087d565b945050602061093c878288016108b6565b935050604061094d878288016108ee565b925050606061095e878288016108b6565b91505092959194509250565b600081519050919050565b600082825260208201905092915050565b6000819050602082019050919050565b61099f816108cb565b82525050565b6109ae81610892565b82525050565b600081600f0b9050919050565b6109ca816109b4565b82525050565b6060820160008201516109e66000850182610996565b5060208201516109f960208501826109a5565b506040820151610a0c60408501826109c1565b50505050565b6000610a1e83836109d0565b60608301905092915050565b6000602082019050919050565b6000610a428261096a565b610a4c8185610975565b9350610a5783610986565b8060005b83811015610a88578151610a6f8882610a12565b9750610a7a83610a2a565b925050600181019050610a5b565b5085935050505092915050565b60006020820190508181036000830152610aaf8184610a37565b905092915050565b7f4e487b7100000000000000000000000000000000000000000000000000000000600052604160045260246000fd5b610aef81610892565b82525050565b6000602082019050610b0a6000830184610ae6565b92915050565b60006fffffffffffffffffffffffffffffffff82169050919050565b610b3581610b10565b8114610b4057600080fd5b50565b600081519050610b5281610b2c565b92915050565b610b61816109b4565b8114610b6c57600080fd5b50565b600081519050610b7e81610b58565b92915050565b6000819050919050565b610b9781610b84565b8114610ba257600080fd5b50565b600081519050610bb481610b8e565b92915050565b60008160060b9050919050565b610bd081610bba565b8114610bdb57600080fd5b50565b600081519050610bed81610bc7565b92915050565b610bfc81610834565b8114610c0757600080fd5b50565b600081519050610c1981610bf3565b92915050565b600063ffffffff82169050919050565b610c3881610c1f565b8114610c4357600080fd5b50565b600081519050610c5581610c2f565b92915050565b600081519050610c6a816108d7565b92915050565b600080600080600080600080610100898b031215610c9157610c9061082f565b5b6000610c9f8b828c01610b43565b9850506020610cb08b828c01610b6f565b9750506040610cc18b828c01610ba5565b9650506060610cd28b828c01610ba5565b9550506080610ce38b828c01610bde565b94505060a0610cf48b828c01610c0a565b93505060c0610d058b828c01610c46565b92505060e0610d168b828c01610c5b565b9150509295985092959890939650565b7f4e487b7100000000000000000000000000000000000000000000000000000000600052603260045260246000fd5b7f4e487b7100000000000000000000000000000000000000000000000000000000600052601160045260246000fd5b6000610d8f82610892565b91507fffffffffffffffffffffffffffffffffffffffffffffffffffffffffff8000008203610dc157610dc0610d55565b5b816000039050919050565b6000610dd782610b84565b91507fffffffffffffffffffffffffffffffffffffffffffffffffffffffffffffffff8203610e0957610e08610d55565b5b600182019050919050565b6000610e1f82610892565b9150610e2a83610892565b92508282039050627fffff81137fffffffffffffffffffffffffffffffffffffffffffffffffffffffffff80000082121715610e6957610e68610d55565b5b92915050565b7f4e487b7100000000000000000000000000000000000000000000000000000000600052601260045260246000fd5b60008160010b9050919050565b610eb481610e9e565b82525050565b6000602082019050610ecf6000830184610eab565b92915050565b600060208284031215610eeb57610eea61082f565b5b6000610ef984828501610ba5565b9150509291505056fea2646970667358221220a30589c09f58952d278220c6c0487f12e401755869c37ac9b41e14bbd29a6c6364736f6c63430008110033",
    "linkReferences": {}
  },
  "methodIdentifiers": {
    "getTickBitmap(address,int24,bool,int24)": "bfe4161e"
  },
  "id": 1
}