{
  "abi": [
    {
      "inputs": [
        {
          "internalType": "address[]",
          "name": "pools",
          "type": "address[]"
        }
      ],
      "stateMutability": "nonpayable",
      "type": "constructor"
    },
    {
      "inputs": [
        {
          "internalType": "address",
          "name": "pool",
          "type": "address"
        },
        {
          "internalType": "int24",
          "name": "currentTick",
          "type": "int24"
        },
        {
          "internalType": "bool",
          "name": "zeroForOne",
          "type": "bool"
        },
        {
          "internalType": "int24",
          "name": "tickSpacing",
          "type": "int24"
        }
      ],
      "name": "getTickBitmap",
      "outputs": [
        {
          "components": [
            {
              "internalType": "bool",
              "name": "initialized",
              "type": "bool"
            },
            {
              "internalType": "int24",
              "name": "tick",
              "type": "int24"
            },
            {
              "internalType": "int128",
              "name": "liquidityNet",
              "type": "int128"
            }
          ],
          "internalType": "struct UniswapV3DataAggregator.TickData[]",
          "name": "tickData",
          "type": "tuple[]"
        }
      ],
      "stateMutability": "nonpayable",
      "type": "function"
    }
  ],
  "bytecode": {
    "object": "0x60806040523480156200001157600080fd5b506040516200205f3803806200205f833981810160405281019062000037919062001498565b6000815167ffffffffffffffff811115620000575762000056620012d4565b5b6040519080825280602002602001820160405280156200009457816020015b62000080620011b8565b815260200190600190039081620000765790505b50905060005b825181101562000914576000838281518110620000bc57620000bb620014e9565b5b60200260200101519050620000d7816200094560201b60201c565b15620000e4575062000900565b620000ee620011b8565b8173ffffffffffffffffffffffffffffffffffffffff16630dfe16816040518163ffffffff1660e01b8152600401602060405180830381865afa1580156200013a573d6000803e3d6000fd5b505050506040513d601f19601f8201168201806040525081019062000160919062001518565b816000019073ffffffffffffffffffffffffffffffffffffffff16908173ffffffffffffffffffffffffffffffffffffffff16815250508173ffffffffffffffffffffffffffffffffffffffff1663d21220a76040518163ffffffff1660e01b8152600401602060405180830381865afa158015620001e3573d6000803e3d6000fd5b505050506040513d601f19601f8201168201806040525081019062000209919062001518565b816040019073ffffffffffffffffffffffffffffffffffffffff16908173ffffffffffffffffffffffffffffffffffffffff16815250506200025581600001516200094560201b60201c565b156200026357505062000900565b6200027881604001516200094560201b60201c565b156200028657505062000900565b600080826000015173ffffffffffffffffffffffffffffffffffffffff166040516024016040516020818303038152906040527f313ce567000000000000000000000000000000000000000000000000000000007bffffffffffffffffffffffffffffffffffffffffffffffffffffffff19166020820180517bffffffffffffffffffffffffffffffffffffffffffffffffffffffff8381831617835250505050604051620003369190620015cd565b6000604051808303816000865af19150503d806000811462000375576040519150601f19603f3d011682016040523d82523d6000602084013e6200037a565b606091505b50915091508115620003f55760006020825103620003e35781806020019051810190620003a8919062001621565b90506000811480620003ba575060ff81115b15620003cb57505050505062000900565b80846020019060ff16908160ff1681525050620003ee565b505050505062000900565b50620003ff565b5050505062000900565b600080846040015173ffffffffffffffffffffffffffffffffffffffff166040516024016040516020818303038152906040527f313ce567000000000000000000000000000000000000000000000000000000007bffffffffffffffffffffffffffffffffffffffffffffffffffffffff19166020820180517bffffffffffffffffffffffffffffffffffffffffffffffffffffffff8381831617835250505050604051620004af9190620015cd565b6000604051808303816000865af19150503d8060008114620004ee576040519150601f19603f3d011682016040523d82523d6000602084013e620004f3565b606091505b509150915081156200057257600060208251036200055e578180602001905181019062000521919062001621565b9050600081148062000533575060ff81115b1562000546575050505050505062000900565b80866060019060ff16908160ff16815250506200056b565b5050505050505062000900565b506200057e565b50505050505062000900565b6000808773ffffffffffffffffffffffffffffffffffffffff16633850c7bd6040518163ffffffff1660e01b815260040160e060405180830381865afa158015620005cd573d6000803e3d6000fd5b505050506040513d601f19601f82011682018060405250810190620005f391906200177c565b50505050509150915060008873ffffffffffffffffffffffffffffffffffffffff1663f30dba93836040518263ffffffff1660e01b815260040162000639919062001840565b61010060405180830381865afa15801562000658573d6000803e3d6000fd5b505050506040513d601f19601f820116820180604052508101906200067e919062001967565b5050505050509150508873ffffffffffffffffffffffffffffffffffffffff16631a6865026040518163ffffffff1660e01b8152600401602060405180830381865afa158015620006d3573d6000803e3d6000fd5b505050506040513d601f19601f82011682018060405250810190620006f9919062001a30565b88608001906fffffffffffffffffffffffffffffffff1690816fffffffffffffffffffffffffffffffff16815250508873ffffffffffffffffffffffffffffffffffffffff1663d0c93a7c6040518163ffffffff1660e01b8152600401602060405180830381865afa15801562000774573d6000803e3d6000fd5b505050506040513d601f19601f820116820180604052508101906200079a919062001a62565b8860e0019060020b908160020b815250508873ffffffffffffffffffffffffffffffffffffffff1663ddca3f436040518163ffffffff1660e01b8152600401602060405180830381865afa158015620007f7573d6000803e3d6000fd5b505050506040513d601f19601f820116820180604052508101906200081d919062001ad4565b88610100019062ffffff16908162ffffff1681525050828860a0019073ffffffffffffffffffffffffffffffffffffffff16908173ffffffffffffffffffffffffffffffffffffffff1681525050818860c0019060020b908160020b8152505080886101200190600f0b9081600f0b81525050620008a9898360018b60e001516200097a60201b60201c565b886101400181905250620008cb898360008b60e001516200097a60201b60201c565b886101600181905250878b8b81518110620008eb57620008ea620014e9565b5b60200260200101819052505050505050505050505b806200090c9062001b35565b90506200009a565b506000816040516020016200092a919062001f02565b60405160208183030381529060405290506020810180590381f35b6000808273ffffffffffffffffffffffffffffffffffffffff163b0362000970576001905062000975565b600090505b919050565b60606000600a905060008167ffffffffffffffff811115620009a157620009a0620012d4565b5b604051908082528060200260200182016040528015620009de57816020015b620009ca62001281565b815260200190600190039081620009c05790505b50905060005b8281101562000d2d5760008062000a048a8a898b62000d3b60201b60201c565b9150915060008a73ffffffffffffffffffffffffffffffffffffffff1663f30dba93846040518263ffffffff1660e01b815260040162000a45919062001840565b61010060405180830381865afa15801562000a64573d6000803e3d6000fd5b505050506040513d601f19601f8201168201806040525081019062000a8a919062001967565b5050505050509150507ffffffffffffffffffffffffffffffffffffffffffffffffffffffffffff2761860020b8360020b121562000b79577ffffffffffffffffffffffffffffffffffffffffffffffffffffffffffff2761892508185858151811062000afc5762000afb620014e9565b5b602002602001015160000190151590811515815250508285858151811062000b295762000b28620014e9565b5b60200260200101516020019060020b908160020b815250508085858151811062000b585762000b57620014e9565b5b602002602001015160400190600f0b9081600f0b8152505050505062000d2d565b7ffffffffffffffffffffffffffffffffffffffffffffffffffffffffffff2761862000ba59062001f26565b60020b8360020b131562000c6a577ffffffffffffffffffffffffffffffffffffffffffffffffffffffffffff2761892508185858151811062000bed5762000bec620014e9565b5b602002602001015160000190151590811515815250508285858151811062000c1a5762000c19620014e9565b5b60200260200101516020019060020b908160020b815250508085858151811062000c495762000c48620014e9565b5b602002602001015160400190600f0b9081600f0b8152505050505062000d2d565b8185858151811062000c815762000c80620014e9565b5b602002602001015160000190151590811515815250508285858151811062000cae5762000cad620014e9565b5b60200260200101516020019060020b908160020b815250508085858151811062000cdd5762000cdc620014e9565b5b602002602001015160400190600f0b9081600f0b81525050838062000d029062001b35565b9450508862000d12578262000d22565b60018362000d21919062001f73565b5b9950505050620009e4565b819350505050949350505050565b60008060008460020b8660020b8162000d595762000d5862001ff4565b5b05905060008660020b12801562000d8d575060008560020b8760020b8162000d865762000d8562001ff4565b5b0760020b14155b1562000d9d578080600190039150505b831562000ea05760008062000db88362000fa560201b60201c565b9150915060008160ff166001901b60018360ff166001901b030190506000818b73ffffffffffffffffffffffffffffffffffffffff16635339c296866040518263ffffffff1660e01b815260040162000e12919062002041565b602060405180830381865afa15801562000e30573d6000803e3d6000fd5b505050506040513d601f19601f8201168201806040525081019062000e56919062001621565b169050600081141595508562000e7457888360ff1686030262000e94565b8862000e8b8262000fd260201b620003e41760201c565b840360ff168603025b96505050505062000f9b565b60008062000eb76001840162000fa560201b60201c565b91509150600060018260ff166001901b031990506000818b73ffffffffffffffffffffffffffffffffffffffff16635339c296866040518263ffffffff1660e01b815260040162000f09919062002041565b602060405180830381865afa15801562000f27573d6000803e3d6000fd5b505050506040513d601f19601f8201168201806040525081019062000f4d919062001621565b169050600081141595508562000f7157888360ff0360ff1660018701010262000f94565b888362000f8983620010b660201b620004bf1760201c565b0360ff166001870101025b9650505050505b5094509492505050565b60008060088360020b901d91506101008360020b8162000fca5762000fc962001ff4565b5b079050915091565b600080821162000fe157600080fd5b70010000000000000000000000000000000082106200100857608082901c91506080810190505b6801000000000000000082106200102757604082901c91506040810190505b64010000000082106200104257602082901c91506020810190505b6201000082106200105b57601082901c91506010810190505b61010082106200107357600882901c91506008810190505b601082106200108a57600482901c91506004810190505b60048210620010a157600282901c91506002810190505b60028210620010b1576001810190505b919050565b6000808211620010c557600080fd5b60ff905060006fffffffffffffffffffffffffffffffff801683161115620010f357608081039050620010fb565b608082901c91505b600067ffffffffffffffff8016831611156200111d5760408103905062001125565b604082901c91505b600063ffffffff80168316111562001143576020810390506200114b565b602082901c91505b600061ffff80168316111562001167576010810390506200116f565b601082901c91505b600060ff8016831611156200118a5760088103905062001192565b600882901c91505b6000600f83161115620011ab57600481039050620011b3565b600482901c91505b919050565b604051806101800160405280600073ffffffffffffffffffffffffffffffffffffffff168152602001600060ff168152602001600073ffffffffffffffffffffffffffffffffffffffff168152602001600060ff16815260200160006fffffffffffffffffffffffffffffffff168152602001600073ffffffffffffffffffffffffffffffffffffffff168152602001600060020b8152602001600060020b8152602001600062ffffff1681526020016000600f0b815260200160608152602001606081525090565b6040518060600160405280600015158152602001600060020b81526020016000600f0b81525090565b6000604051905090565b600080fd5b600080fd5b600080fd5b6000601f19601f8301169050919050565b7f4e487b7100000000000000000000000000000000000000000000000000000000600052604160045260246000fd5b6200130e82620012c3565b810181811067ffffffffffffffff8211171562001330576200132f620012d4565b5b80604052505050565b600062001345620012aa565b905062001353828262001303565b919050565b600067ffffffffffffffff821115620013765762001375620012d4565b5b602082029050602081019050919050565b600080fd5b600073ffffffffffffffffffffffffffffffffffffffff82169050919050565b6000620013b9826200138c565b9050919050565b620013cb81620013ac565b8114620013d757600080fd5b50565b600081519050620013eb81620013c0565b92915050565b600062001408620014028462001358565b62001339565b905080838252602082019050602084028301858111156200142e576200142d62001387565b5b835b818110156200145b5780620014468882620013da565b84526020840193505060208101905062001430565b5050509392505050565b600082601f8301126200147d576200147c620012be565b5b81516200148f848260208601620013f1565b91505092915050565b600060208284031215620014b157620014b0620012b4565b5b600082015167ffffffffffffffff811115620014d257620014d1620012b9565b5b620014e08482850162001465565b91505092915050565b7f4e487b7100000000000000000000000000000000000000000000000000000000600052603260045260246000fd5b600060208284031215620015315762001530620012b4565b5b60006200154184828501620013da565b91505092915050565b600081519050919050565b600081905092915050565b60005b838110156200158057808201518184015260208101905062001563565b8381111562001590576000848401525b50505050565b6000620015a3826200154a565b620015af818562001555565b9350620015c181856020860162001560565b80840191505092915050565b6000620015db828462001596565b915081905092915050565b6000819050919050565b620015fb81620015e6565b81146200160757600080fd5b50565b6000815190506200161b81620015f0565b92915050565b6000602082840312156200163a5762001639620012b4565b5b60006200164a848285016200160a565b91505092915050565b6200165e816200138c565b81146200166a57600080fd5b50565b6000815190506200167e8162001653565b92915050565b60008160020b9050919050565b6200169c8162001684565b8114620016a857600080fd5b50565b600081519050620016bc8162001691565b92915050565b600061ffff82169050919050565b620016db81620016c2565b8114620016e757600080fd5b50565b600081519050620016fb81620016d0565b92915050565b600060ff82169050919050565b620017198162001701565b81146200172557600080fd5b50565b60008151905062001739816200170e565b92915050565b60008115159050919050565b62001756816200173f565b81146200176257600080fd5b50565b60008151905062001776816200174b565b92915050565b600080600080600080600060e0888a0312156200179e576200179d620012b4565b5b6000620017ae8a828b016200166d565b9750506020620017c18a828b01620016ab565b9650506040620017d48a828b01620016ea565b9550506060620017e78a828b01620016ea565b9450506080620017fa8a828b01620016ea565b93505060a06200180d8a828b0162001728565b92505060c0620018208a828b0162001765565b91505092959891949750929550565b6200183a8162001684565b82525050565b60006020820190506200185760008301846200182f565b92915050565b60006fffffffffffffffffffffffffffffffff82169050919050565b62001884816200185d565b81146200189057600080fd5b50565b600081519050620018a48162001879565b92915050565b600081600f0b9050919050565b620018c281620018aa565b8114620018ce57600080fd5b50565b600081519050620018e281620018b7565b92915050565b60008160060b9050919050565b6200190081620018e8565b81146200190c57600080fd5b50565b6000815190506200192081620018f5565b92915050565b600063ffffffff82169050919050565b620019418162001926565b81146200194d57600080fd5b50565b600081519050620019618162001936565b92915050565b600080600080600080600080610100898b0312156200198b576200198a620012b4565b5b60006200199b8b828c0162001893565b9850506020620019ae8b828c01620018d1565b9750506040620019c18b828c016200160a565b9650506060620019d48b828c016200160a565b9550506080620019e78b828c016200190f565b94505060a0620019fa8b828c016200166d565b93505060c062001a0d8b828c0162001950565b92505060e062001a208b828c0162001765565b9150509295985092959890939650565b60006020828403121562001a495762001a48620012b4565b5b600062001a598482850162001893565b91505092915050565b60006020828403121562001a7b5762001a7a620012b4565b5b600062001a8b84828501620016ab565b91505092915050565b600062ffffff82169050919050565b62001aae8162001a94565b811462001aba57600080fd5b50565b60008151905062001ace8162001aa3565b92915050565b60006020828403121562001aed5762001aec620012b4565b5b600062001afd8482850162001abd565b91505092915050565b7f4e487b7100000000000000000000000000000000000000000000000000000000600052601160045260246000fd5b600062001b4282620015e6565b91507fffffffffffffffffffffffffffffffffffffffffffffffffffffffffffffffff820362001b775762001b7662001b06565b5b600182019050919050565b600081519050919050565b600082825260208201905092915050565b6000819050602082019050919050565b62001bb981620013ac565b82525050565b62001bca8162001701565b82525050565b62001bdb816200185d565b82525050565b62001bec816200138c565b82525050565b62001bfd8162001684565b82525050565b62001c0e8162001a94565b82525050565b62001c1f81620018aa565b82525050565b600081519050919050565b600082825260208201905092915050565b6000819050602082019050919050565b62001c5c816200173f565b82525050565b60608201600082015162001c7a600085018262001c51565b50602082015162001c8f602085018262001bf2565b50604082015162001ca4604085018262001c14565b50505050565b600062001cb8838362001c62565b60608301905092915050565b6000602082019050919050565b600062001cde8262001c25565b62001cea818562001c30565b935062001cf78362001c41565b8060005b8381101562001d2e57815162001d12888262001caa565b975062001d1f8362001cc4565b92505060018101905062001cfb565b5085935050505092915050565b60006101808301600083015162001d56600086018262001bae565b50602083015162001d6b602086018262001bbf565b50604083015162001d80604086018262001bae565b50606083015162001d95606086018262001bbf565b50608083015162001daa608086018262001bd0565b5060a083015162001dbf60a086018262001be1565b5060c083015162001dd460c086018262001bf2565b5060e083015162001de960e086018262001bf2565b5061010083015162001e0061010086018262001c03565b5061012083015162001e1761012086018262001c14565b5061014083015184820361014086015262001e33828262001cd1565b91505061016083015184820361016086015262001e51828262001cd1565b9150508091505092915050565b600062001e6c838362001d3b565b905092915050565b6000602082019050919050565b600062001e8e8262001b82565b62001e9a818562001b8d565b93508360208202850162001eae8562001b9e565b8060005b8581101562001ef0578484038952815162001ece858262001e5e565b945062001edb8362001e74565b925060208a0199505060018101905062001eb2565b50829750879550505050505092915050565b6000602082019050818103600083015262001f1e818462001e81565b905092915050565b600062001f338262001684565b91507fffffffffffffffffffffffffffffffffffffffffffffffffffffffffff800000820362001f685762001f6762001b06565b5b816000039050919050565b600062001f808262001684565b915062001f8d8362001684565b9250827fffffffffffffffffffffffffffffffffffffffffffffffffffffffffff8000000182126000841215161562001fcb5762001fca62001b06565b5b82627fffff01821360008412161562001fe95762001fe862001b06565b5b828203905092915050565b7f4e487b7100000000000000000000000000000000000000000000000000000000600052601260045260246000fd5b60008160010b9050919050565b6200203b8162002023565b82525050565b600060208201905062002058600083018462002030565b9291505056fe",
    "linkReferences": {}
  },
  "deployedBytecode": {
    "object": "0x608060405234801561001057600080fd5b506004361061002b5760003560e01c8063bfe4161e14610030575b600080fd5b61004a60048036038101906100459190610903565b610060565b6040516100579190610a95565b60405180910390f35b60606000600a905060008167ffffffffffffffff81111561008457610083610ab7565b5b6040519080825280602002602001820160405280156100bd57816020015b6100aa610806565b8152602001906001900390816100a25790505b50905060005b828110156103d6576000806100da8a8a898b6105b4565b9150915060008a73ffffffffffffffffffffffffffffffffffffffff1663f30dba93846040518263ffffffff1660e01b81526004016101199190610af5565b61010060405180830381865afa158015610137573d6000803e3d6000fd5b505050506040513d601f19601f8201168201806040525081019061015b9190610c70565b5050505050509150507ffffffffffffffffffffffffffffffffffffffffffffffffffffffffffff2761860020b8360020b121561023f577ffffffffffffffffffffffffffffffffffffffffffffffffffffffffffff276189250818585815181106101c9576101c8610d26565b5b60200260200101516000019015159081151581525050828585815181106101f3576101f2610d26565b5b60200260200101516020019060020b908160020b815250508085858151811061021f5761021e610d26565b5b602002602001015160400190600f0b9081600f0b815250505050506103d6565b7ffffffffffffffffffffffffffffffffffffffffffffffffffffffffffff2761861026990610d84565b60020b8360020b1315610323577ffffffffffffffffffffffffffffffffffffffffffffffffffffffffffff276189250818585815181106102ad576102ac610d26565b5b60200260200101516000019015159081151581525050828585815181106102d7576102d6610d26565b5b60200260200101516020019060020b908160020b815250508085858151811061030357610302610d26565b5b602002602001015160400190600f0b9081600f0b815250505050506103d6565b8185858151811061033757610336610d26565b5b602002602001015160000190151590811515815250508285858151811061036157610360610d26565b5b60200260200101516020019060020b908160020b815250508085858151811061038d5761038c610d26565b5b602002602001015160400190600f0b9081600f0b8152505083806103b090610dcc565b945050886103be57826103cc565b6001836103cb9190610e14565b5b99505050506100c3565b819350505050949350505050565b60008082116103f257600080fd5b700100000000000000000000000000000000821061041857608082901c91506080810190505b68010000000000000000821061043657604082901c91506040810190505b640100000000821061045057602082901c91506020810190505b62010000821061046857601082901c91506010810190505b610100821061047f57600882901c91506008810190505b6010821061049557600482901c91506004810190505b600482106104ab57600282901c91506002810190505b600282106104ba576001810190505b919050565b60008082116104cd57600080fd5b60ff905060006fffffffffffffffffffffffffffffffff8016831611156104f957608081039050610501565b608082901c91505b600067ffffffffffffffff80168316111561052157604081039050610529565b604082901c91505b600063ffffffff8016831611156105455760208103905061054d565b602082901c91505b600061ffff8016831611156105675760108103905061056f565b601082901c91505b600060ff80168316111561058857600881039050610590565b600882901c91505b6000600f831611156105a7576004810390506105af565b600482901c91505b919050565b60008060008460020b8660020b816105cf576105ce610e8b565b5b05905060008660020b1280156105ff575060008560020b8760020b816105f8576105f7610e8b565b5b0760020b14155b1561060e578080600190039150505b83156106f357600080610620836107dc565b9150915060008160ff166001901b60018360ff166001901b030190506000818b73ffffffffffffffffffffffffffffffffffffffff16635339c296866040518263ffffffff1660e01b81526004016106789190610ed6565b602060405180830381865afa158015610695573d6000803e3d6000fd5b505050506040513d601f19601f820116820180604052508101906106b99190610ef1565b16905060008114159550856106d557888360ff168603026106e8565b886106df826103e4565b840360ff168603025b9650505050506107d2565b600080610702600184016107dc565b91509150600060018260ff166001901b031990506000818b73ffffffffffffffffffffffffffffffffffffffff16635339c296866040518263ffffffff1660e01b81526004016107529190610ed6565b602060405180830381865afa15801561076f573d6000803e3d6000fd5b505050506040513d601f19601f820116820180604052508101906107939190610ef1565b16905060008114159550856107b557888360ff0360ff166001870101026107cb565b88836107c0836104bf565b0360ff166001870101025b9650505050505b5094509492505050565b60008060088360020b901d91506101008360020b816107fe576107fd610e8b565b5b079050915091565b6040518060600160405280600015158152602001600060020b81526020016000600f0b81525090565b600080fd5b600073ffffffffffffffffffffffffffffffffffffffff82169050919050565b600061085f82610834565b9050919050565b61086f81610854565b811461087a57600080fd5b50565b60008135905061088c81610866565b92915050565b60008160020b9050919050565b6108a881610892565b81146108b357600080fd5b50565b6000813590506108c58161089f565b92915050565b60008115159050919050565b6108e0816108cb565b81146108eb57600080fd5b50565b6000813590506108fd816108d7565b92915050565b6000806000806080858703121561091d5761091c61082f565b5b600061092b8782880161087d565b945050602061093c878288016108b6565b935050604061094d878288016108ee565b925050606061095e878288016108b6565b91505092959194509250565b600081519050919050565b600082825260208201905092915050565b6000819050602082019050919050565b61099f816108cb565b82525050565b6109ae81610892565b82525050565b600081600f0b9050919050565b6109ca816109b4565b82525050565b6060820160008201516109e66000850182610996565b5060208201516109f960208501826109a5565b506040820151610a0c60408501826109c1565b50505050565b6000610a1e83836109d0565b60608301905092915050565b6000602082019050919050565b6000610a428261096a565b610a4c8185610975565b9350610a5783610986565b8060005b83811015610a88578151610a6f8882610a12565b9750610a7a83610a2a565b925050600181019050610a5b565b5085935050505092915050565b60006020820190508181036000830152610aaf8184610a37565b905092915050565b7f4e487b7100000000000000000000000000000000000000000000000000000000600052604160045260246000fd5b610aef81610892565b82525050565b6000602082019050610b0a6000830184610ae6565b92915050565b60006fffffffffffffffffffffffffffffffff82169050919050565b610b3581610b10565b8114610b4057600080fd5b50565b600081519050610b5281610b2c565b92915050565b610b61816109b4565b8114610b6c57600080fd5b50565b600081519050610b7e81610b58565b92915050565b6000819050919050565b610b9781610b84565b8114610ba257600080fd5b50565b600081519050610bb481610b8e565b92915050565b60008160060b9050919050565b610bd081610bba565b8114610bdb57600080fd5b50565b600081519050610bed81610bc7565b92915050565b610bfc81610834565b8114610c0757600080fd5b50565b600081519050610c1981610bf3565b92915050565b600063ffffffff82169050919050565b610c3881610c1f565b8114610c4357600080fd5b50565b600081519050610c5581610c2f565b92915050565b600081519050610c6a816108d7565b92915050565b600080600080600080600080610100898b031215610c9157610c9061082f565b5b6000610c9f8b828c01610b43565b9850506020610cb08b828c01610b6f565b9750506040610cc18b828c01610ba5565b9650506060610cd28b828c01610ba5565b9550506080610ce38b828c01610bde565b94505060a0610cf48b828c01610c0a565b93505060c0610d058b828c01610c46565b92505060e0610d168b828c01610c5b565b9150509295985092959890939650565b7f4e487b7100000000000000000000000000000000000000000000000000000000600052603260045260246000fd5b7f4e487b7100000000000000000000000000000000000000000000000000000000600052601160045260246000fd5b6000610d8f82610892565b91507fffffffffffffffffffffffffffffffffffffffffffffffffffffffffff8000008203610dc157610dc0610d55565b5b816000039050919050565b6000610dd782610b84565b91507fffffffffffffffffffffffffffffffffffffffffffffffffffffffffffffffff8203610e0957610e08610d55565b5b600182019050919050565b6000610e1f82610892565b9150610e2a83610892565b9250827fffffffffffffffffffffffffffffffffffffffffffffffffffffffffff80000001821260008412151615610e6557610e64610d55565b5b82627fffff018213600084121615610e8057610e7f610d55565b5b828203905092915050565b7f4e487b7100000000000000000000000000000000000000000000000000000000600052601260045260246000fd5b60008160010b9050919050565b610ed081610eba565b82525050565b6000602082019050610eeb6000830184610ec7565b92915050565b600060208284031215610f0757610f0661082f565b5b6000610f1584828501610ba5565b9150509291505056fea2646970667358221220eb2acb2e33032132973eb9136f82235a327e50247bfaa1f9871bb763b36cd02e64736f6c634300080f0033",
    "linkReferences": {}
  },
  "methodIdentifiers": {
    "getTickBitmap(address,int24,bool,int24)": "bfe4161e"
  },
  "id": 0
}