{
  "abi": [
    {
      "inputs": [
        {
          "internalType": "address[]",
          "name": "pools",
          "type": "address[]"
        }
      ],
      "stateMutability": "nonpayable",
      "type": "constructor"
    },
    {
      "inputs": [
        {
          "internalType": "address",
          "name": "pool",
          "type": "address"
        },
        {
          "internalType": "int24",
          "name": "currentTick",
          "type": "int24"
        },
        {
          "internalType": "bool",
          "name": "zeroForOne",
          "type": "bool"
        },
        {
          "internalType": "int24",
          "name": "tickSpacing",
          "type": "int24"
        }
      ],
      "name": "getTickBitmap",
      "outputs": [
        {
          "components": [
            {
              "internalType": "bool",
              "name": "initialized",
              "type": "bool"
            },
            {
              "internalType": "int24",
              "name": "tick",
              "type": "int24"
            },
            {
              "internalType": "int128",
              "name": "liquidityNet",
              "type": "int128"
            }
          ],
          "internalType": "struct UniswapV3DataAggregator.TickData[]",
          "name": "tickData",
          "type": "tuple[]"
        }
      ],
      "stateMutability": "nonpayable",
      "type": "function"
    }
  ],
  "bytecode": {
    "object": "0x60806040523480156200001157600080fd5b50604051620022673803806200226783398181016040528101906200003791906200162e565b6000815167ffffffffffffffff8111156200005757620000566200146a565b5b6040519080825280602002602001820160405280156200009457816020015b620000806200131c565b815260200190600190039081620000765790505b50905060005b825181101562000a78576000838281518110620000bc57620000bb6200167f565b5b60200260200101519050620000d78162000aa960201b60201c565b15620000e4575062000a64565b620000ee6200131c565b81816000019073ffffffffffffffffffffffffffffffffffffffff16908173ffffffffffffffffffffffffffffffffffffffff16815250508173ffffffffffffffffffffffffffffffffffffffff16630dfe16816040518163ffffffff1660e01b8152600401602060405180830381865afa15801562000172573d6000803e3d6000fd5b505050506040513d601f19601f82011682018060405250810190620001989190620016ae565b816020019073ffffffffffffffffffffffffffffffffffffffff16908173ffffffffffffffffffffffffffffffffffffffff16815250508173ffffffffffffffffffffffffffffffffffffffff1663d21220a76040518163ffffffff1660e01b8152600401602060405180830381865afa1580156200021b573d6000803e3d6000fd5b505050506040513d601f19601f82011682018060405250810190620002419190620016ae565b816060019073ffffffffffffffffffffffffffffffffffffffff16908173ffffffffffffffffffffffffffffffffffffffff16815250506200028d816020015162000aa960201b60201c565b156200029b57505062000a64565b620002b0816060015162000aa960201b60201c565b15620002be57505062000a64565b600080826020015173ffffffffffffffffffffffffffffffffffffffff166040516024016040516020818303038152906040527f313ce567000000000000000000000000000000000000000000000000000000007bffffffffffffffffffffffffffffffffffffffffffffffffffffffff19166020820180517bffffffffffffffffffffffffffffffffffffffffffffffffffffffff83818316178352505050506040516200036e919062001759565b6000604051808303816000865af19150503d8060008114620003ad576040519150601f19603f3d011682016040523d82523d6000602084013e620003b2565b606091505b509150915081156200042d57600060208251036200041b5781806020019051810190620003e09190620017ad565b90506000811480620003f2575060ff81115b156200040357505050505062000a64565b80846040019060ff16908160ff168152505062000426565b505050505062000a64565b5062000437565b5050505062000a64565b600080846060015173ffffffffffffffffffffffffffffffffffffffff166040516024016040516020818303038152906040527f313ce567000000000000000000000000000000000000000000000000000000007bffffffffffffffffffffffffffffffffffffffffffffffffffffffff19166020820180517bffffffffffffffffffffffffffffffffffffffffffffffffffffffff8381831617835250505050604051620004e7919062001759565b6000604051808303816000865af19150503d806000811462000526576040519150601f19603f3d011682016040523d82523d6000602084013e6200052b565b606091505b50915091508115620005aa5760006020825103620005965781806020019051810190620005599190620017ad565b905060008114806200056b575060ff81115b156200057e575050505050505062000a64565b80866080019060ff16908160ff1681525050620005a3565b5050505050505062000a64565b50620005b6565b50505050505062000a64565b6000808773ffffffffffffffffffffffffffffffffffffffff16633850c7bd6040518163ffffffff1660e01b815260040160e060405180830381865afa15801562000605573d6000803e3d6000fd5b505050506040513d601f19601f820116820180604052508101906200062b919062001908565b50505050509150915060008873ffffffffffffffffffffffffffffffffffffffff1663f30dba93836040518263ffffffff1660e01b8152600401620006719190620019cc565b61010060405180830381865afa15801562000690573d6000803e3d6000fd5b505050506040513d601f19601f82011682018060405250810190620006b6919062001af3565b5050505050509150508873ffffffffffffffffffffffffffffffffffffffff16631a6865026040518163ffffffff1660e01b8152600401602060405180830381865afa1580156200070b573d6000803e3d6000fd5b505050506040513d601f19601f8201168201806040525081019062000731919062001bbc565b8860a001906fffffffffffffffffffffffffffffffff1690816fffffffffffffffffffffffffffffffff16815250508873ffffffffffffffffffffffffffffffffffffffff1663d0c93a7c6040518163ffffffff1660e01b8152600401602060405180830381865afa158015620007ac573d6000803e3d6000fd5b505050506040513d601f19601f82011682018060405250810190620007d2919062001bee565b88610100019060020b908160020b815250508873ffffffffffffffffffffffffffffffffffffffff1663ddca3f436040518163ffffffff1660e01b8152600401602060405180830381865afa15801562000830573d6000803e3d6000fd5b505050506040513d601f19601f8201168201806040525081019062000856919062001c60565b88610120019062ffffff16908162ffffff1681525050828860c0019073ffffffffffffffffffffffffffffffffffffffff16908173ffffffffffffffffffffffffffffffffffffffff1681525050818860e0019060020b908160020b8152505080886101400190600f0b9081600f0b81525050620008e3898360018b610100015162000ade60201b60201c565b886101c0018190525062000906898360008b610100015162000ade60201b60201c565b886101e00181905250876020015173ffffffffffffffffffffffffffffffffffffffff166370a082318a6040518263ffffffff1660e01b81526004016200094e919062001ca3565b6020604051808303816000875af11580156200096e573d6000803e3d6000fd5b505050506040513d601f19601f82011682018060405250810190620009949190620017ad565b88610160018181525050876060015173ffffffffffffffffffffffffffffffffffffffff166370a082318a6040518263ffffffff1660e01b8152600401620009dd919062001ca3565b6020604051808303816000875af1158015620009fd573d6000803e3d6000fd5b505050506040513d601f19601f8201168201806040525081019062000a239190620017ad565b8861018001818152505043886101a0018181525050878b8b8151811062000a4f5762000a4e6200167f565b5b60200260200101819052505050505050505050505b8062000a709062001cef565b90506200009a565b5060008160405160200162000a8e919062002129565b60405160208183030381529060405290506020810180590381f35b6000808273ffffffffffffffffffffffffffffffffffffffff163b0362000ad4576001905062000ad9565b600090505b919050565b60606000600a905060008167ffffffffffffffff81111562000b055762000b046200146a565b5b60405190808252806020026020018201604052801562000b4257816020015b62000b2e62001417565b81526020019060019003908162000b245790505b50905060005b8281101562000e915760008062000b688a8a898b62000e9f60201b60201c565b9150915060008a73ffffffffffffffffffffffffffffffffffffffff1663f30dba93846040518263ffffffff1660e01b815260040162000ba99190620019cc565b61010060405180830381865afa15801562000bc8573d6000803e3d6000fd5b505050506040513d601f19601f8201168201806040525081019062000bee919062001af3565b5050505050509150507ffffffffffffffffffffffffffffffffffffffffffffffffffffffffffff2761860020b8360020b121562000cdd577ffffffffffffffffffffffffffffffffffffffffffffffffffffffffffff2761892508185858151811062000c605762000c5f6200167f565b5b602002602001015160000190151590811515815250508285858151811062000c8d5762000c8c6200167f565b5b60200260200101516020019060020b908160020b815250508085858151811062000cbc5762000cbb6200167f565b5b602002602001015160400190600f0b9081600f0b8152505050505062000e91565b7ffffffffffffffffffffffffffffffffffffffffffffffffffffffffffff2761862000d09906200214d565b60020b8360020b131562000dce577ffffffffffffffffffffffffffffffffffffffffffffffffffffffffffff2761892508185858151811062000d515762000d506200167f565b5b602002602001015160000190151590811515815250508285858151811062000d7e5762000d7d6200167f565b5b60200260200101516020019060020b908160020b815250508085858151811062000dad5762000dac6200167f565b5b602002602001015160400190600f0b9081600f0b8152505050505062000e91565b8185858151811062000de55762000de46200167f565b5b602002602001015160000190151590811515815250508285858151811062000e125762000e116200167f565b5b60200260200101516020019060020b908160020b815250508085858151811062000e415762000e406200167f565b5b602002602001015160400190600f0b9081600f0b81525050838062000e669062001cef565b9450508862000e76578262000e86565b60018362000e8591906200219a565b5b995050505062000b48565b819350505050949350505050565b60008060008460020b8660020b8162000ebd5762000ebc620021fc565b5b05905060008660020b12801562000ef1575060008560020b8760020b8162000eea5762000ee9620021fc565b5b0760020b14155b1562000f01578080600190039150505b8315620010045760008062000f1c836200110960201b60201c565b9150915060008160ff166001901b60018360ff166001901b030190506000818b73ffffffffffffffffffffffffffffffffffffffff16635339c296866040518263ffffffff1660e01b815260040162000f76919062002249565b602060405180830381865afa15801562000f94573d6000803e3d6000fd5b505050506040513d601f19601f8201168201806040525081019062000fba9190620017ad565b169050600081141595508562000fd857888360ff1686030262000ff8565b8862000fef826200113660201b620003e41760201c565b840360ff168603025b965050505050620010ff565b6000806200101b600184016200110960201b60201c565b91509150600060018260ff166001901b031990506000818b73ffffffffffffffffffffffffffffffffffffffff16635339c296866040518263ffffffff1660e01b81526004016200106d919062002249565b602060405180830381865afa1580156200108b573d6000803e3d6000fd5b505050506040513d601f19601f82011682018060405250810190620010b19190620017ad565b1690506000811415955085620010d557888360ff0360ff16600187010102620010f8565b8883620010ed836200121a60201b620004bf1760201c565b0360ff166001870101025b9650505050505b5094509492505050565b60008060088360020b901d91506101008360020b816200112e576200112d620021fc565b5b079050915091565b60008082116200114557600080fd5b70010000000000000000000000000000000082106200116c57608082901c91506080810190505b6801000000000000000082106200118b57604082901c91506040810190505b6401000000008210620011a657602082901c91506020810190505b620100008210620011bf57601082901c91506010810190505b6101008210620011d757600882901c91506008810190505b60108210620011ee57600482901c91506004810190505b600482106200120557600282901c91506002810190505b6002821062001215576001810190505b919050565b60008082116200122957600080fd5b60ff905060006fffffffffffffffffffffffffffffffff80168316111562001257576080810390506200125f565b608082901c91505b600067ffffffffffffffff801683161115620012815760408103905062001289565b604082901c91505b600063ffffffff801683161115620012a757602081039050620012af565b602082901c91505b600061ffff801683161115620012cb57601081039050620012d3565b601082901c91505b600060ff801683161115620012ee57600881039050620012f6565b600882901c91505b6000600f831611156200130f5760048103905062001317565b600482901c91505b919050565b604051806102000160405280600073ffffffffffffffffffffffffffffffffffffffff168152602001600073ffffffffffffffffffffffffffffffffffffffff168152602001600060ff168152602001600073ffffffffffffffffffffffffffffffffffffffff168152602001600060ff16815260200160006fffffffffffffffffffffffffffffffff168152602001600073ffffffffffffffffffffffffffffffffffffffff168152602001600060020b8152602001600060020b8152602001600062ffffff1681526020016000600f0b815260200160008152602001600081526020016000815260200160608152602001606081525090565b6040518060600160405280600015158152602001600060020b81526020016000600f0b81525090565b6000604051905090565b600080fd5b600080fd5b600080fd5b6000601f19601f8301169050919050565b7f4e487b7100000000000000000000000000000000000000000000000000000000600052604160045260246000fd5b620014a48262001459565b810181811067ffffffffffffffff82111715620014c657620014c56200146a565b5b80604052505050565b6000620014db62001440565b9050620014e9828262001499565b919050565b600067ffffffffffffffff8211156200150c576200150b6200146a565b5b602082029050602081019050919050565b600080fd5b600073ffffffffffffffffffffffffffffffffffffffff82169050919050565b60006200154f8262001522565b9050919050565b620015618162001542565b81146200156d57600080fd5b50565b600081519050620015818162001556565b92915050565b60006200159e6200159884620014ee565b620014cf565b90508083825260208201905060208402830185811115620015c457620015c36200151d565b5b835b81811015620015f15780620015dc888262001570565b845260208401935050602081019050620015c6565b5050509392505050565b600082601f83011262001613576200161262001454565b5b81516200162584826020860162001587565b91505092915050565b6000602082840312156200164757620016466200144a565b5b600082015167ffffffffffffffff8111156200166857620016676200144f565b5b6200167684828501620015fb565b91505092915050565b7f4e487b7100000000000000000000000000000000000000000000000000000000600052603260045260246000fd5b600060208284031215620016c757620016c66200144a565b5b6000620016d78482850162001570565b91505092915050565b600081519050919050565b600081905092915050565b60005b8381101562001716578082015181840152602081019050620016f9565b60008484015250505050565b60006200172f82620016e0565b6200173b8185620016eb565b93506200174d818560208601620016f6565b80840191505092915050565b600062001767828462001722565b915081905092915050565b6000819050919050565b620017878162001772565b81146200179357600080fd5b50565b600081519050620017a7816200177c565b92915050565b600060208284031215620017c657620017c56200144a565b5b6000620017d68482850162001796565b91505092915050565b620017ea8162001522565b8114620017f657600080fd5b50565b6000815190506200180a81620017df565b92915050565b60008160020b9050919050565b620018288162001810565b81146200183457600080fd5b50565b60008151905062001848816200181d565b92915050565b600061ffff82169050919050565b62001867816200184e565b81146200187357600080fd5b50565b60008151905062001887816200185c565b92915050565b600060ff82169050919050565b620018a5816200188d565b8114620018b157600080fd5b50565b600081519050620018c5816200189a565b92915050565b60008115159050919050565b620018e281620018cb565b8114620018ee57600080fd5b50565b6000815190506200190281620018d7565b92915050565b600080600080600080600060e0888a0312156200192a57620019296200144a565b5b60006200193a8a828b01620017f9565b97505060206200194d8a828b0162001837565b9650506040620019608a828b0162001876565b9550506060620019738a828b0162001876565b9450506080620019868a828b0162001876565b93505060a0620019998a828b01620018b4565b92505060c0620019ac8a828b01620018f1565b91505092959891949750929550565b620019c68162001810565b82525050565b6000602082019050620019e36000830184620019bb565b92915050565b60006fffffffffffffffffffffffffffffffff82169050919050565b62001a1081620019e9565b811462001a1c57600080fd5b50565b60008151905062001a308162001a05565b92915050565b600081600f0b9050919050565b62001a4e8162001a36565b811462001a5a57600080fd5b50565b60008151905062001a6e8162001a43565b92915050565b60008160060b9050919050565b62001a8c8162001a74565b811462001a9857600080fd5b50565b60008151905062001aac8162001a81565b92915050565b600063ffffffff82169050919050565b62001acd8162001ab2565b811462001ad957600080fd5b50565b60008151905062001aed8162001ac2565b92915050565b600080600080600080600080610100898b03121562001b175762001b166200144a565b5b600062001b278b828c0162001a1f565b985050602062001b3a8b828c0162001a5d565b975050604062001b4d8b828c0162001796565b965050606062001b608b828c0162001796565b955050608062001b738b828c0162001a9b565b94505060a062001b868b828c01620017f9565b93505060c062001b998b828c0162001adc565b92505060e062001bac8b828c01620018f1565b9150509295985092959890939650565b60006020828403121562001bd55762001bd46200144a565b5b600062001be58482850162001a1f565b91505092915050565b60006020828403121562001c075762001c066200144a565b5b600062001c178482850162001837565b91505092915050565b600062ffffff82169050919050565b62001c3a8162001c20565b811462001c4657600080fd5b50565b60008151905062001c5a8162001c2f565b92915050565b60006020828403121562001c795762001c786200144a565b5b600062001c898482850162001c49565b91505092915050565b62001c9d8162001542565b82525050565b600060208201905062001cba600083018462001c92565b92915050565b7f4e487b7100000000000000000000000000000000000000000000000000000000600052601160045260246000fd5b600062001cfc8262001772565b91507fffffffffffffffffffffffffffffffffffffffffffffffffffffffffffffffff820362001d315762001d3062001cc0565b5b600182019050919050565b600081519050919050565b600082825260208201905092915050565b6000819050602082019050919050565b62001d738162001542565b82525050565b62001d84816200188d565b82525050565b62001d9581620019e9565b82525050565b62001da68162001522565b82525050565b62001db78162001810565b82525050565b62001dc88162001c20565b82525050565b62001dd98162001a36565b82525050565b62001dea8162001772565b82525050565b600081519050919050565b600082825260208201905092915050565b6000819050602082019050919050565b62001e2781620018cb565b82525050565b60608201600082015162001e45600085018262001e1c565b50602082015162001e5a602085018262001dac565b50604082015162001e6f604085018262001dce565b50505050565b600062001e83838362001e2d565b60608301905092915050565b6000602082019050919050565b600062001ea98262001df0565b62001eb5818562001dfb565b935062001ec28362001e0c565b8060005b8381101562001ef957815162001edd888262001e75565b975062001eea8362001e8f565b92505060018101905062001ec6565b5085935050505092915050565b60006102008301600083015162001f21600086018262001d68565b50602083015162001f36602086018262001d68565b50604083015162001f4b604086018262001d79565b50606083015162001f60606086018262001d68565b50608083015162001f75608086018262001d79565b5060a083015162001f8a60a086018262001d8a565b5060c083015162001f9f60c086018262001d9b565b5060e083015162001fb460e086018262001dac565b5061010083015162001fcb61010086018262001dac565b5061012083015162001fe261012086018262001dbd565b5061014083015162001ff961014086018262001dce565b506101608301516200201061016086018262001ddf565b506101808301516200202761018086018262001ddf565b506101a08301516200203e6101a086018262001ddf565b506101c08301518482036101c08601526200205a828262001e9c565b9150506101e08301518482036101e086015262002078828262001e9c565b9150508091505092915050565b600062002093838362001f06565b905092915050565b6000602082019050919050565b6000620020b58262001d3c565b620020c1818562001d47565b935083602082028501620020d58562001d58565b8060005b85811015620021175784840389528151620020f5858262002085565b945062002102836200209b565b925060208a01995050600181019050620020d9565b50829750879550505050505092915050565b60006020820190508181036000830152620021458184620020a8565b905092915050565b60006200215a8262001810565b91507fffffffffffffffffffffffffffffffffffffffffffffffffffffffffff80000082036200218f576200218e62001cc0565b5b816000039050919050565b6000620021a78262001810565b9150620021b48362001810565b92508282039050627fffff81137fffffffffffffffffffffffffffffffffffffffffffffffffffffffffff80000082121715620021f657620021f562001cc0565b5b92915050565b7f4e487b7100000000000000000000000000000000000000000000000000000000600052601260045260246000fd5b60008160010b9050919050565b62002243816200222b565b82525050565b600060208201905062002260600083018462002238565b9291505056fe",
    "linkReferences": {}
  },
  "deployedBytecode": {
    "object": "0x608060405234801561001057600080fd5b506004361061002b5760003560e01c8063bfe4161e14610030575b600080fd5b61004a60048036038101906100459190610903565b610060565b6040516100579190610a95565b60405180910390f35b60606000600a905060008167ffffffffffffffff81111561008457610083610ab7565b5b6040519080825280602002602001820160405280156100bd57816020015b6100aa610806565b8152602001906001900390816100a25790505b50905060005b828110156103d6576000806100da8a8a898b6105b4565b9150915060008a73ffffffffffffffffffffffffffffffffffffffff1663f30dba93846040518263ffffffff1660e01b81526004016101199190610af5565b61010060405180830381865afa158015610137573d6000803e3d6000fd5b505050506040513d601f19601f8201168201806040525081019061015b9190610c70565b5050505050509150507ffffffffffffffffffffffffffffffffffffffffffffffffffffffffffff2761860020b8360020b121561023f577ffffffffffffffffffffffffffffffffffffffffffffffffffffffffffff276189250818585815181106101c9576101c8610d26565b5b60200260200101516000019015159081151581525050828585815181106101f3576101f2610d26565b5b60200260200101516020019060020b908160020b815250508085858151811061021f5761021e610d26565b5b602002602001015160400190600f0b9081600f0b815250505050506103d6565b7ffffffffffffffffffffffffffffffffffffffffffffffffffffffffffff2761861026990610d84565b60020b8360020b1315610323577ffffffffffffffffffffffffffffffffffffffffffffffffffffffffffff276189250818585815181106102ad576102ac610d26565b5b60200260200101516000019015159081151581525050828585815181106102d7576102d6610d26565b5b60200260200101516020019060020b908160020b815250508085858151811061030357610302610d26565b5b602002602001015160400190600f0b9081600f0b815250505050506103d6565b8185858151811061033757610336610d26565b5b602002602001015160000190151590811515815250508285858151811061036157610360610d26565b5b60200260200101516020019060020b908160020b815250508085858151811061038d5761038c610d26565b5b602002602001015160400190600f0b9081600f0b8152505083806103b090610dcc565b945050886103be57826103cc565b6001836103cb9190610e14565b5b99505050506100c3565b819350505050949350505050565b60008082116103f257600080fd5b700100000000000000000000000000000000821061041857608082901c91506080810190505b68010000000000000000821061043657604082901c91506040810190505b640100000000821061045057602082901c91506020810190505b62010000821061046857601082901c91506010810190505b610100821061047f57600882901c91506008810190505b6010821061049557600482901c91506004810190505b600482106104ab57600282901c91506002810190505b600282106104ba576001810190505b919050565b60008082116104cd57600080fd5b60ff905060006fffffffffffffffffffffffffffffffff8016831611156104f957608081039050610501565b608082901c91505b600067ffffffffffffffff80168316111561052157604081039050610529565b604082901c91505b600063ffffffff8016831611156105455760208103905061054d565b602082901c91505b600061ffff8016831611156105675760108103905061056f565b601082901c91505b600060ff80168316111561058857600881039050610590565b600882901c91505b6000600f831611156105a7576004810390506105af565b600482901c91505b919050565b60008060008460020b8660020b816105cf576105ce610e6f565b5b05905060008660020b1280156105ff575060008560020b8760020b816105f8576105f7610e6f565b5b0760020b14155b1561060e578080600190039150505b83156106f357600080610620836107dc565b9150915060008160ff166001901b60018360ff166001901b030190506000818b73ffffffffffffffffffffffffffffffffffffffff16635339c296866040518263ffffffff1660e01b81526004016106789190610eba565b602060405180830381865afa158015610695573d6000803e3d6000fd5b505050506040513d601f19601f820116820180604052508101906106b99190610ed5565b16905060008114159550856106d557888360ff168603026106e8565b886106df826103e4565b840360ff168603025b9650505050506107d2565b600080610702600184016107dc565b91509150600060018260ff166001901b031990506000818b73ffffffffffffffffffffffffffffffffffffffff16635339c296866040518263ffffffff1660e01b81526004016107529190610eba565b602060405180830381865afa15801561076f573d6000803e3d6000fd5b505050506040513d601f19601f820116820180604052508101906107939190610ed5565b16905060008114159550856107b557888360ff0360ff166001870101026107cb565b88836107c0836104bf565b0360ff166001870101025b9650505050505b5094509492505050565b60008060088360020b901d91506101008360020b816107fe576107fd610e6f565b5b079050915091565b6040518060600160405280600015158152602001600060020b81526020016000600f0b81525090565b600080fd5b600073ffffffffffffffffffffffffffffffffffffffff82169050919050565b600061085f82610834565b9050919050565b61086f81610854565b811461087a57600080fd5b50565b60008135905061088c81610866565b92915050565b60008160020b9050919050565b6108a881610892565b81146108b357600080fd5b50565b6000813590506108c58161089f565b92915050565b60008115159050919050565b6108e0816108cb565b81146108eb57600080fd5b50565b6000813590506108fd816108d7565b92915050565b6000806000806080858703121561091d5761091c61082f565b5b600061092b8782880161087d565b945050602061093c878288016108b6565b935050604061094d878288016108ee565b925050606061095e878288016108b6565b91505092959194509250565b600081519050919050565b600082825260208201905092915050565b6000819050602082019050919050565b61099f816108cb565b82525050565b6109ae81610892565b82525050565b600081600f0b9050919050565b6109ca816109b4565b82525050565b6060820160008201516109e66000850182610996565b5060208201516109f960208501826109a5565b506040820151610a0c60408501826109c1565b50505050565b6000610a1e83836109d0565b60608301905092915050565b6000602082019050919050565b6000610a428261096a565b610a4c8185610975565b9350610a5783610986565b8060005b83811015610a88578151610a6f8882610a12565b9750610a7a83610a2a565b925050600181019050610a5b565b5085935050505092915050565b60006020820190508181036000830152610aaf8184610a37565b905092915050565b7f4e487b7100000000000000000000000000000000000000000000000000000000600052604160045260246000fd5b610aef81610892565b82525050565b6000602082019050610b0a6000830184610ae6565b92915050565b60006fffffffffffffffffffffffffffffffff82169050919050565b610b3581610b10565b8114610b4057600080fd5b50565b600081519050610b5281610b2c565b92915050565b610b61816109b4565b8114610b6c57600080fd5b50565b600081519050610b7e81610b58565b92915050565b6000819050919050565b610b9781610b84565b8114610ba257600080fd5b50565b600081519050610bb481610b8e565b92915050565b60008160060b9050919050565b610bd081610bba565b8114610bdb57600080fd5b50565b600081519050610bed81610bc7565b92915050565b610bfc81610834565b8114610c0757600080fd5b50565b600081519050610c1981610bf3565b92915050565b600063ffffffff82169050919050565b610c3881610c1f565b8114610c4357600080fd5b50565b600081519050610c5581610c2f565b92915050565b600081519050610c6a816108d7565b92915050565b600080600080600080600080610100898b031215610c9157610c9061082f565b5b6000610c9f8b828c01610b43565b9850506020610cb08b828c01610b6f565b9750506040610cc18b828c01610ba5565b9650506060610cd28b828c01610ba5565b9550506080610ce38b828c01610bde565b94505060a0610cf48b828c01610c0a565b93505060c0610d058b828c01610c46565b92505060e0610d168b828c01610c5b565b9150509295985092959890939650565b7f4e487b7100000000000000000000000000000000000000000000000000000000600052603260045260246000fd5b7f4e487b7100000000000000000000000000000000000000000000000000000000600052601160045260246000fd5b6000610d8f82610892565b91507fffffffffffffffffffffffffffffffffffffffffffffffffffffffffff8000008203610dc157610dc0610d55565b5b816000039050919050565b6000610dd782610b84565b91507fffffffffffffffffffffffffffffffffffffffffffffffffffffffffffffffff8203610e0957610e08610d55565b5b600182019050919050565b6000610e1f82610892565b9150610e2a83610892565b92508282039050627fffff81137fffffffffffffffffffffffffffffffffffffffffffffffffffffffffff80000082121715610e6957610e68610d55565b5b92915050565b7f4e487b7100000000000000000000000000000000000000000000000000000000600052601260045260246000fd5b60008160010b9050919050565b610eb481610e9e565b82525050565b6000602082019050610ecf6000830184610eab565b92915050565b600060208284031215610eeb57610eea61082f565b5b6000610ef984828501610ba5565b9150509291505056fea264697066735822122067427d4f8eff4c24bf20e86f7aefed0dfa9f16d0ff1ea6826e2a59459ac1e36e64736f6c63430008110033",
    "linkReferences": {}
  },
  "methodIdentifiers": {
    "getTickBitmap(address,int24,bool,int24)": "bfe4161e"
  },
  "id": 28
}